:100000000C941F010C9450010C9450010C9450015D
:100010000C9450010C9450010C9450010C9450011C
:100020000C9450010C9450010C9450010C9450010C
:100030000C9450010C9450010C9450010C945001FC
:100040000C9450010C9450010C9450010C945001EC
:100050000C9450010C9450010C9450010C942C03FE
:100060000C9450010C9450010C9450010C945001CC
:100070000C9450010C9450010C9450010C945001BC
:100080000C9450010C9450010C9450010C945001AC
:100090000C9450010C9450010C9450010C94760374
:1000A0000C9450010C9450010C9450010C9450018C
:1000B0000C9450010C9450010C9450010C9450017C
:1000C0000C9450010C9450010C9450010C9450016C
:1000D0000C9450010C9450010C9450010C9450015C
:1000E0000C9450010C94C8010C94BA010C94DA01E0
:1000F0000C9489010C949B010C94BE010C946B022E
:100100000C94D6010C946C020C94A3010C94520133
:100110000C94CC010C94A7010C94C2010C94F10234
:100120000C94B4010C94B0010C9495020C949F01B2
:100130000C9484010C948E020C94AA010C94C202BB
:100140000C947B020C9453010C94D0010C943A064D
:1001500000002200250028002B002E003100340072
:1001600002010000050108010B0105050505070551
:1001700008080808020202020A0A08080404040423
:10018000010101010101010103030303030303034F
:10019000040707070C0C0C0C0C0C0C0C02020202DE
:1001A00006060606060606060B0B0B0B0B0B0B0BC7
:1001B0000102102020080810204010204080020179
:1001C000020108040201010204081020408080405E
:1001D000201008040201800402018040201008045D
:1001E00002010804020101020408102040800102FB
:1001F00004081020408000000A0B02090C0D0E08B4
:1002000007030401000000000000000000000000DF
:1002100000000000000000000000000000000000DE
:10022000000012111000000000000000000000009B
:100230000000000000000000000000003A06112449
:100240001FBECFEFD1E2DEBFCDBF00E00CBF12E09A
:10025000A0E0B2E0EAEAFCE000E00BBF02C00790D9
:100260000D92A831B107D9F722E0A8E1B2E001C0B0
:100270001D92A83EB207E1F711E0CFE1D1E000E026
:1002800006C021970109802FFE010E944B06CE3146
:10029000D10780E00807A9F70E949A040C9453063E
:1002A0000C94000008950895282F30E0F901EA50D9
:1002B000FE4F9491F901E055FE4F449126593E4F6F
:1002C000F9012491222309F435C0992311F19150A9
:1002D0009231F8F4E92FF0E08827EE58FE4F8F4F67
:1002E0000C944B06A301A70184019B019F01890186
:1002F000AA01B001B401BA01BE01C201C801CC011A
:100300008901D001D601DA01809180008F77809336
:100310008000E22FF0E0EE0FFF1FE05BFE4FA591A3
:10032000B4918FB7F894EC91611148C040954E2379
:100330004C938FBF0895809180008F7DE8CF80918E
:100340008000877FE4CF84B58F7784BDE2CF84B50A
:100350008F7DFBCF8091B0008F778093B000D9CF95
:100360008091B0008F7DF9CF809190008F7780933E
:100370009000CFCF809190008F7DF9CF8091900039
:10038000877FF5CF8091A0008F778093A000C1CFA9
:100390008091A0008F7DF9CF8091A000877FF5CF5D
:1003A000809120018F7780932001B3CF809120012D
:1003B0008F7DF9CF80912001877FF5CF4E2BB8CF6D
:1003C0003FB7F8948091810290918202A0918302BC
:1003D000B091840226B5A89B05C02F3F19F0019665
:1003E000A11DB11D3FBFBA2FA92F982F8827BC018F
:1003F000CD01620F711D811D911D42E0660F771FB7
:10040000881F991F4A95D1F7089520915902260F08
:100410003327331F21323105ECF42091B102FC0166
:1004200090E080E0243069F082E00895A0915902C4
:100430002191AC01475C5D4FA40FB52FB11D2C93EA
:100440000196861798F380915902680F60935902BC
:1004500080E0089581E008951092B10281E08093D8
:10046000B00210928B0261E084E10E94540161E0CD
:1004700085E10E945401E9EBF0E080818E7F80836A
:1004800080818D7F808388E48093B80085E48093A9
:10049000BC000895CF93DF9391E0909338028823B6
:1004A000B9F0C091B800D091BA008091BC008A7BAD
:1004B0008093BC0060E084E10E94540160E085E12B
:1004C0000E9454010E942C02D093BA00C093B8003D
:1004D000DF91CF9108950895E0918A028091890279
:1004E000E81730F4F0E0E85EFD4F808190E0089579
:1004F0008FEF9FEF089590918A02809189022FEFEC
:100500003FEF981748F4E92FF0E0E85EFD4F2081B7
:1005100030E09F5F90938A02C9010895809189021B
:1005200090918A02891B990B0895CF92DF92EF92E6
:10053000FF920F931F93CF93DF937C01CB018A012E
:100540002091B702222389F0EB016B01C40ED51E66
:10055000CC15DD0569F06991D701ED91FC91019011
:10056000F081E02DC7011995F3CF642F0E94050299
:10057000C801DF91CF911F910F91FF90EF90DF9015
:10058000CF900895CF93DF931F92CDB7DEB76983E5
:100590002091B7022223F9F02091DA02203258F09C
:1005A00021E030E0FC013383228390E080E00F9073
:1005B000DF91CF9108958091B802E82FF0E0E754E1
:1005C000FD4F998190838F5F8093B8028093DA0208
:1005D00081E090E0ECCF61E0CE0101960E9405023F
:1005E000F7CF90E080E0089585ED8093BC00809186
:1005F000B3029091B402A091B502B091B6020796F1
:10060000A11DB11D23E0B695A795979587952A95CD
:10061000D1F72091BC0024FD03C01092B1020895CF
:100620004091B3025091B4026091B5027091B6024C
:10063000452B462B472B69F30097A105B10541F0E7
:100640002AE22A95F1F700C00197A109B109E1CF8B
:100650008091B2020C944A021F920F920FB60F9231
:1006600011242F933F938F939F93AF93BF938091C8
:100670007D0290917E02A0917F02B0918002309124
:100680007C0223E0230F2D3758F50196A11DB11DE3
:1006900020937C0280937D0290937E02A0937F0240
:1006A000B09380028091810290918202A091830296
:1006B000B09184020196A11DB11D80938102909397
:1006C0008202A0938302B0938402BF91AF919F9165
:1006D0008F913F912F910F900FBE0F901F90189503
:1006E00026E8230F0296A11DB11DD2CF1F920F92B3
:1006F0000FB60F9211240BB60F922F933F934F9387
:100700005F936F937F938F939F93AF93BF93EF9379
:10071000FF938091B900887F803609F44DC008F0BE
:1007200040C0883209F4A9C028F5803109F49DC081
:10073000C8F4882309F4FBC0883009F496C0FF91FF
:10074000EF91BF91AF919F918F917F916F915F9149
:100750004F913F912F910F900BBE0F900FBE0F90B6
:100760001F901895883109F488C0803241F7809332
:10077000AF0214C0803409F49DC040F48033B9F353
:100780008833E9F68093AF0285ECB0C0803509F478
:1007900085C0883509F496C0883489F60E94F40231
:1007A000CECF883909F48CC038F5883729F050F459
:1007B000883611F0803719F683E08093B1021092E9
:1007C0007B0257C0883809F47BC0803919F0803823
:1007D00009F0B5CF80917B02803208F071C0E091C2
:1007E0007B0281E08E0F80937B028091BB00F0E062
:1007F000E55AFD4F80833DC0803B39F0E0F4803AFC
:1008000009F479C0883A09F09ACF84E08093B10264
:1008100010925A0210925902E0918702F0918802D8
:1008200019958091590281110FC081E0809359027E
:100830001092390209C0803C09F4A6CF883C09F423
:10084000A3CF883B09F07BCFE0915A0281E08E0F65
:1008500080935A02F0E0E75CFD4F80818093BB00FB
:1008600090915A028091590229C080918C02809304
:10087000BB0085EC8093BC0062CF9091AE0280916A
:10088000AD02981758F5E091AE0281E08E0F80938B
:10089000AE02F0E0E357FD4F8081E9CFE091AE0278
:1008A00081E08E0F8093AE028091BB00F0E0E357B1
:1008B000FD4F80839091AE028091AD029817C8F2EF
:1008C00085E8D8CFE091AE0281E08E0F8093AE0232
:1008D0008091BB00F0E0E357FD4F80838091B00230
:1008E00081115CCF81E080938B0284EA8093BC000D
:1008F0001092B10224CF85EC8093BC001092B1021B
:1009000080917B02803230F4E0917B02F0E0E55A86
:10091000FD4F108260917B0270E0E0918502F091C2
:1009200086028BE592E0199510927B0208CF109217
:10093000AF0234CF789484B5826084BD84B5816081
:1009400084BD85B5826085BD85B5816085BD80919A
:100950006E00816080936E00109281008091810012
:10096000826080938100809181008160809381000A
:10097000809180008160809380008091B1008460CC
:100980008093B1008091B00081608093B00080912D
:1009900091008260809391008091910081608093AA
:1009A0009100809190008160809390008091A100DF
:1009B00082608093A1008091A10081608093A1005A
:1009C0008091A00081608093A000809121018260CD
:1009D0008093210180912101816080932101809188
:1009E000200181608093200180917A00846080934F
:1009F0007A0080917A00826080937A0080917A00F8
:100A0000816080937A0080917A00806880937A0078
:100A10001092C10010928A02109289020E942C0248
:100A200082E591E0909388028093870283E591E0CC
:100A30009093860280938502C1E0D5EE95EC992EC5
:100A400020E0A22E20E0B22E32E0832E33243A940E
:100A500002E112E0C093B702C093D9021092B8022B
:100A60001092DA02F80161918F018CED92E00E9400
:100A7000C2026091DB028CED92E00E94C202709093
:100A8000DA02F0E2F71508F48CC00E94E0016B0175
:100A90007C018091B10281115FC08092B102C0934C
:100AA000B0023092AF021092AE027092AD02A9EB8A
:100AB000B2E0EDE8F2E07812B1C010928C028091C1
:100AC0008C02826080938C0280918B02813009F0CD
:100AD000A9C010928B020E94E0016B017C01809101
:100AE0008C028093BB008091B3029091B402A091DC
:100AF000B502B091B602892B8A2B8B2B99F00E94FC
:100B0000E0014090B3025090B4026090B502709042
:100B1000B6026C197D098E099F09461657066806AC
:100B20007906D8F18091BC0083FDD9CF9092BC00AA
:100B30000E94E0016B017C018091B102823009F4D6
:100B400074C08091AF028F3F61F18091AF0280321B
:100B500041F18091AF0225C08091B3029091B4021F
:100B6000A091B502B091B602892B8A2B8B2B09F488
:100B700090CF0E94E0012091B3023091B4024091E5
:100B8000B5025091B6026C197D098E099F0926178E
:100B900037074807590708F07CCF8091B2020E94BE
:100BA0004A021092B8021092DA021092B7020E9422
:100BB000E0012B013C0188EEC82E83E0D82EE12C09
:100BC000F12C0E94E0016419750986099709683EB5
:100BD000734081059105A8F321E0C21AD108E1080C
:100BE000F10888EE480E83E0581E611C711CC11488
:100BF000D104E104F10429F7F2E007311F0709F0FD
:100C000029CF8091DB02811132C0C093DB02A11495
:100C1000B10409F41DCF0E9400001ACF9D91919359
:100C20008F5F49CFD093BC0083CF8091B302909166
:100C3000B402A091B502B091B602892B8A2B8B2BFE
:100C400009F47ACF0E94E0014090B3025090B402C0
:100C50006090B5027090B6026C197D098E099F09EB
:100C6000461657066806790608F066CF96CF1092AA
:100C7000DB02CDCFECEDF2E01382128288EE93E03E
:100C8000A0E0B0E084839583A683B78384E092E0FC
:100C9000918380830895EE0FFF1F881F8BBF0790FD
:0A0CA000F691E02D1994F894FFCFAF
:100CAA0000000000C2029502F1026B028E027B0272
:080CBA006C02020304050600B0
:00000001FF
