:100000000C9431010C9462010C9462010C94620115
:100010000C9462010C9462010C9462010C946201D4
:100020000C9462010C9462010C9462010C946201C4
:100030000C9462010C9462010C9462010C946201B4
:100040000C9462010C9462010C9462010C946201A4
:100050000C9462010C9462010C9462010C94AC0645
:100060000C9462010C9476060C944C060C9462017C
:100070000C9462010C9462010C9462010C94620174
:100080000C9462010C9462010C9462010C94620164
:100090000C9416060C94EC050C9462010C9462010D
:1000A0000C9462010C9462010C9462010C94620144
:1000B0000C9462010C9462010C9462010C94620134
:1000C0000C9462010C9462010C9462010C94620124
:1000D0000C9462010C9462010C9462010C94620114
:1000E0000C9462010C9497020C9444030C94A101AB
:1000F0000C9414030C9458030C9497090C94F60672
:100100000C944E030C942B030C9440030C944A0261
:100110000C942F030C9460030C944A030C94E60196
:100120000C9433030C9466030C94FA010C943A0378
:100130000C94D7010C94C6030C941E050C945C031C
:100140000C9419030C9437030C94C7030C94080205
:100150000C9452030C946A03000021002400270031
:100160002A002D00300033000101000004010701C6
:100170000A0100002200250028002B002E0031007B
:10018000340002010000050108010B010505050509
:10019000070508080808020202020A0A08080404FF
:1001A000040401010101010101010303030303032D
:1001B0000303040707070C0C0C0C0C0C0C0C0202BC
:1001C000020206060606060606060B0B0B0B0B0BB9
:1001D0000B0B010210202008081020401020408046
:1001E00002010201080402010102040810204080FB
:1001F0008040201008040201800402018040201089
:1002000008040201080402010102040810204080D1
:10021000010204081020408000000A0B02090C0DA6
:100220000E080703040100000000000000000000A9
:1002300000000000000000000000000000000000BE
:10024000000000001211100000000000000000007B
:100250000000000000000000000000000000F606A2
:10026000970911241FBECFEFD1E2DEBFCDBF00E062
:100270000CBF24E0A8E8B2E001C01D92AD30B20787
:10028000E1F712E0A0E0B2E0E8EBF8E100E00BBF3C
:1002900002C007900D92A838B107D9F711E0C0E36A
:1002A000D1E000E006C021970109802FFE010E94E5
:1002B000090ACF32D10780E00807A9F70E94780722
:1002C0000C944A0C0C940000FC01A089B18982E0D6
:1002D0008C93A485B5851C92A685B7858FEC8C93ED
:1002E000108EA489B58986E08C93A289B3898C91FC
:1002F00080618C93A289B3898C9188608C93A28948
:10030000B3898C9180688C930288F389E02D808179
:100310008F7D808308952091E3033091E403821759
:10032000930738F42091DF033091E0032115310564
:1003300029F41092A40284EA92E00895820F931F98
:100340000895AF92BF92CF92DF92EF92FF920F93F8
:100350001F93CF93DF936C017B018B01040F151F5B
:10036000EB015E01AE18BF08C017D10759F06991C3
:10037000D601ED91FC910190F081E02DC601199517
:10038000892B79F7C501DF91CF911F910F91FF90D4
:10039000EF90DF90CF90BF90AF900895FC01448123
:1003A00055816081718181EF93E00C94A101FC0182
:1003B000538D448D252F30E0842F90E0821B930BCA
:1003C000541710F0CF96089501970895FC01918D70
:1003D000828D981761F0A28DAE0FBF2FB11D5D9673
:1003E0008C91928D9F5F9F73928F90E008958FEF15
:1003F0009FEF0895FC01918D828D981731F0828DC9
:10040000E80FF11D858D90E008958FEF9FEF08951F
:10041000FC01918D228D892F90E0805C9F4F821B83
:1004200091098F739927089585EA92E00E94080246
:1004300021E0892B09F420E0822F089582E493E0E3
:100440000E94080221E0892B09F420E0822F089500
:10045000FC01A48DA80FB92FB11DA35ABF4F2C9139
:10046000848D90E001968F739927848FA689B78930
:100470002C93A089B1898C91837080648C93938D27
:10048000848D981306C00288F389E02D80818F7DCA
:1004900080830895EF92FF920F931F93CF93DF9382
:1004A000EC0181E0888F9B8D8C8D98131AC0E889B0
:1004B000F989808185FF15C09FB7F894EE89FF897F
:1004C0006083E889F98980818370806480839FBF1D
:1004D00081E090E0DF91CF911F910F91FF90EF901D
:1004E0000895F62E0B8D10E00F5F1F4F0F7311272D
:1004F000E02E8C8D8E110CC00FB607FCFACFE88968
:10050000F989808185FFF5CFCE010E942802F1CFC5
:10051000EB8DEC0FFD2FF11DE35AFF4FF0829FB7DB
:10052000F8940B8FEA89FB8980818062CFCFCF93CB
:10053000DF93EC01888D8823B9F0AA89BB89E8890B
:10054000F9898C9185FD03C0808186FD0DC00FB6B1
:1005500007FCF7CF8C9185FFF2CF808185FFEDCF2F
:10056000CE010E942802E9CFDF91CF91089580E06B
:1005700090E0892B29F00E941E0281110E94000048
:1005800080E090E0892B29F00E94140281110E94E2
:10059000000080E090E0892B49F080E090E0892B1A
:1005A00029F00E94000081110E94000080E090E08C
:1005B000892B49F080E090E0892B29F00E9400000F
:1005C00081110C9400000895282F30E0F901E85EB5
:1005D000FD4F9491F901EE52FE4F449124573E4F46
:1005E000F9012491222309F435C0992311F1915086
:1005F0009231F8F4E92FF0E08827EE5FFC4F8F4F3F
:100600000C94090A3303370314032B032F03190334
:100610003A03400344034A034E03520358035C0366
:100620001903600366036A03809180008F778093CB
:100630008000E22FF0E0EE0FFF1FEE58FE4FA59175
:10064000B4918FB7F894EC91611148C040954E2356
:100650004C938FBF0895809180008F7DE8CF80916B
:100660008000877FE4CF84B58F7784BDE2CF84B5E7
:100670008F7DFBCF8091B0008F778093B000D9CF72
:100680008091B0008F7DF9CF809190008F7780931B
:100690009000CFCF809190008F7DF9CF8091900016
:1006A000877FF5CF8091A0008F778093A000C1CF86
:1006B0008091A0008F7DF9CF8091A000877FF5CF3A
:1006C000809120018F7780932001B3CF809120010A
:1006D0008F7DF9CF80912001877FF5CF4E2BB8CF4A
:1006E000CF93DF9390E0FC01EE52FE4F24918457AC
:1006F0009E4FFC0184918823D1F090E0880F991FD0
:10070000FC01E85AFE4FA591B491FC01EE58FE4F52
:10071000C591D49161110EC09FB7F8948C91E22FCE
:10072000E0958E238C932881E223E8839FBFDF919D
:10073000CF9108958FB7F894EC91E22BEC938FBF93
:10074000F6CF3FB7F89480918D0290918E02A091E0
:100750008F02B091900226B5A89B05C02F3F19F0DB
:100760000196A11DB11D3FBFBA2FA92F982F882731
:10077000BC01CD01620F711D811D911D42E0660F0C
:10078000771F881F991F4A95D1F70895089590E023
:1007900080E00895CF93DF93EC0160E08E810E94AA
:1007A000E40261E08E810E94E40260E08E810E949A
:1007B000E4028BE891E00197F1F7DF91CF91089582
:1007C000CF92DF92EF92FF920F931F93CF93DF931D
:1007D0006C017C0187E0E80EF11CD0E0C0E0062F40
:1007E00010E0B8010C2E02C0759567950A94E2F7E7
:1007F0006170F70181917F010E94E4022196C4306B
:10080000D10579F7C601DF91CF911F910F91FF902C
:10081000EF90DF90CF900C94CA03CF92DF92EF92CB
:10082000FF920F931F93CF93DF93EC01F62E642F6B
:100830008C810E94E4028D818F3F19F060E00E945C
:10084000E4020F2D10E08F8584FF25C06E0187E044
:10085000C80ED11CF12CE12CB8010E2C02C07595EC
:1008600067950A94E2F76170F60181916F010E9429
:10087000E402FFEFEF1AFF0A88E0E816F10461F7DF
:10088000CE01DF91CF911F910F91FF90EF90DF90FC
:10089000CF900C94CA03B80184E0759567958A954A
:1008A000E1F7CE010E94E0036F2DCE01DF91CF91E1
:1008B0001F910F91FF90EF90DF90CF900C94E00389
:1008C00040E0682F81EF93E00C940D0481E00E94DA
:1008D00060048BE39FE10197F1F70895CF93DF93D5
:1008E000823029F4909100049860909300048093E2
:1008F00004041092050480E48093060480E1809350
:10090000070480E58093080461E08091F5030E946C
:1009100070038091F6038F3F19F061E00E9470032D
:1009200061E08091F7030E947003C1EFD3E09E0164
:10093000215F33408091000484FD0BC084E090E08F
:1009400021962817390744F461E08E810E947003D4
:10095000EECF88E090E0F4CF8BE39DE00197F1F7D4
:1009600060E08091F5030E94E40260E08091F7036B
:100970000E94E4028091F6038F3F19F060E00E942C
:10098000E4028091000484FD34C063E081EF93E0D1
:100990000E94E003CBE4D6E4CE010197F1F763E0D7
:1009A00081EF93E00E94E0032197F1F763E081EF8C
:1009B00093E00E94E00383E592E00197F1F762E0A3
:1009C00081EF93E00E94E0038091000480620E9426
:1009D000600484E0809301048CE00E9460040E9423
:1009E000660482E08093020486E0DF91CF910C944C
:1009F000600480620E9460048BE496E40197F1F742
:100A00008091000480620E94600483E592E0019777
:100A1000F1F78091000480620E946004D5CF90912C
:100A20000404891710F08FEF890FE82FF0E0EF50E2
:100A3000FC4F84898F5F80680C94600441E00E94C1
:100A40000D0481E090E00895EF92FF920F931F93C1
:100A5000CF93DF937C018C01D0E0C0E0CE010E94F7
:100A6000DF09F80181938F012196C131D105B1F7DA
:100A7000C701DF91CF911F910F91FF90EF900895E3
:100A8000FB0101900020E9F73197AF01461B570B9E
:100A9000DC01ED91FC910280F381E02D1994FC01C1
:100AA00080819181009711F00C94C10A08950F93F1
:100AB0001F93CF93DF93EC0188819981009759F0C0
:100AC0002A813B812617370730F081E0DF91CF91F3
:100AD0001F910F9108958B016F5F7F4F0E944A0B0A
:100AE000009759F0998388831B830A832C813D8169
:100AF000232B59F7FC011082E8CF80E0E7CFEF927B
:100B0000FF920F931F93CF93DF93EC017B01198228
:100B100018821B821A821D821C82FB010190002018
:100B2000E9F731978F01061B170BB8010E94570593
:100B300028813981811113C02115310519F0C901AE
:100B40000E94C10A198218821D821C821B821A828D
:100B5000DF91CF911F910F91FF90EF9008951D832A
:100B60000C83B701C901DF91CF911F910F91FF90C5
:100B7000EF900C94340CEF92FF920F931F93CF934E
:100B8000DF931F921F92CDB7DEB78C0169831A8263
:100B9000FC01E480F580FFEFEF1AFF0AB7010E9425
:100BA0005705882381F0F801208131818481958166
:100BB000BE016F5F7F4F820F931F0E94340CF801BC
:100BC000F582E48281E00F900F90DF91CF911F9129
:100BD0000F91FF90EF9008951F920F920FB60F9212
:100BE00011240BB60F922F933F934F935F936F9304
:100BF0007F938F939F93AF93BF93EF93FF9385EA78
:100C000092E00E942802FF91EF91BF91AF919F91D6
:100C10008F917F916F915F914F913F912F910F90A5
:100C20000BBE0F900FBE0F901F9018951F920F9242
:100C30000FB60F9211240BB60F922F938F939F93A1
:100C4000EF93FF93E091B502F091B6028081E091BD
:100C5000BB02F091BC0282FD1DC090818091BE025A
:100C60008F5F8F732091BF02821741F0E091BE0227
:100C7000F0E0EB55FD4F958F8093BE02FF91EF9111
:100C80009F918F912F910F900BBE0F900FBE0F90E1
:100C90001F9018958081F2CF1F920F920FB60F927E
:100CA00011240BB60F922F933F934F935F936F9343
:100CB0007F938F939F93AF93BF93EF93FF9382E4C0
:100CC00093E00E942802FF91EF91BF91AF919F9115
:100CD0008F917F916F915F914F913F912F910F90E5
:100CE0000BBE0F900FBE0F901F9018951F920F9282
:100CF0000FB60F9211240BB60F922F938F939F93E1
:100D0000EF93FF93E0915203F09153038081E091C0
:100D10005803F091590382FD1DC0908180915B03BF
:100D20008F5F8F7320915C03821741F0E0915B032A
:100D3000F0E0EE5BFC4F958F80935B03FF91EF91AA
:100D40009F918F912F910F900BBE0F900FBE0F9020
:100D50001F9018958081F2CF1F920F920FB60F92BD
:100D600011242F933F938F939F93AF93BF938091C1
:100D7000890290918A02A0918B02B0918C023091ED
:100D8000880223E0230F2D3758F50196A11DB11DD0
:100D9000209388028093890290938A02A0938B0209
:100DA000B0938C0280918D0290918E02A0918F025F
:100DB000B09190020196A11DB11D80938D02909378
:100DC0008E02A0938F02B0939002BF91AF919F913A
:100DD0008F913F912F910F900FBE0F901F901895FC
:100DE00026E8230F0296A11DB11DD2CFE5EAF2E05D
:100DF0001382128248EE53E060E070E04483558332
:100E00006683778381E292E0918380832DEC30E0EA
:100E1000358724872CEC30E03787268728EC30E0B4
:100E2000318B208B29EC30E0338B228B2AEC30E0A5
:100E3000358B248B2EEC30E0378B268B118E128E67
:100E4000138E148EE2E4F3E01382128244835583FE
:100E5000668377839183808385EC90E09587848790
:100E600084EC90E09787868780EC90E0918B808B74
:100E700081EC90E0938B828B82EC90E0958B848B5D
:100E800086EC90E0978B868B118E128E138E148ECB
:100E9000E1EFF3E01382128283E392E09183808397
:100EA00086E184838FEF858387E1868388E187836A
:100EB0008BE180878DE1818781E2828713861486AA
:100EC00015861686178681E00E946E046BE372E039
:100ED0008BEE93E00E947F056BE472E085EE93E079
:100EE0000E947F0566E872E08FED93E00C947F0529
:100EF000CF93DF93CDB7DEB7EF970FB6F894DEBF91
:100F00000FBECDBF789484B5826084BD84B5816006
:100F100084BD85B5826085BD85B5816085BD8091C4
:100F20006E00816080936E0010928100809181003C
:100F30008260809381008091810081608093810034
:100F4000809180008160809380008091B1008460F6
:100F50008093B1008091B00081608093B000809157
:100F600091008260809391008091910081608093D4
:100F70009100809190008160809390008091A10009
:100F800082608093A1008091A10081608093A10084
:100F90008091A00081608093A000809121018260F7
:100FA00080932101809121018160809321018091B2
:100FB000200181608093200180917A008460809379
:100FC0007A0080917A00826080937A0080917A0022
:100FD000816080937A0080917A00806880937A00A3
:100FE0001092C10082E493E00E94640185EA92E0DD
:100FF0000E94640160E082E00E94700360E083E090
:101000000E94700360E084E00E94700382E00E940E
:101010006E0480E00E940F058BEE93E00E94CE01EB
:1010200081E00E940F0585EE93E00E94CE013324FB
:1010300033944AE0E42EF12CCC24CA94DC2C82E4D4
:1010400093E00E940802892B71F082E493E00E94F1
:10105000E601182F8093A302682F8FED93E00E9482
:10106000BB051093A2028091A202853209F0B8C09C
:1010700066E872E0CE01CA960E947F0566E872E0DB
:10108000CE01C4960E947F0510E000E0772473949F
:101090008091E3039091E4030817190748F5C8010C
:1010A0000E948B01FC0180818C3221F4712C0F5F36
:1010B0001F4FEECFC8010E948B01FC018081853259
:1010C000A9F3C801772059F00E948B01FC016081CF
:1010D000CE01CA960E94BB0577247394E8CF0E9484
:1010E0008B01FC016081CE01C4960E94BB05DFCF5D
:1010F0000E94660480E00E940F056BE572E081EFBC
:1011000093E00E94400581E00E940F0568E672E0CE
:1011100081EF93E00E9440058AAD9BAD009709F4F2
:10112000CCC00E94A30970930202609301027CA3C9
:101130006BA308AD19AD0F3F100729F0011511057C
:1011400009F0BFC01DA281E1FE01B396DE015296F7
:1011500001900D928A95E1F7CE0101960E94240537
:101160003E0122E1620E711C10E000E0F30151909B
:101170003F01C8010E94DF09581621F0652DC80102
:101180000E94E7090F5F1F4F0131110579F770E0E9
:1011900060E08FED93E00E9457052091DF033091CE
:1011A000E00381119DC02115310519F0C9010E948C
:1011B000C10A1092E0031092DF031092E403109230
:1011C000E3031092E2031092E10384E28093A2020F
:1011D000CE01C4960E944F05CE01CA960E944F05CB
:1011E000009101021091020217FD84C0C801B701ED
:1011F0000E94F509660F771FFB01E75FFD4F208115
:1012000020BBFC01EE0FFF1FE75FFD4F8081809345
:1012100007010115110511F0015011091093020287
:10122000009301020E94A1034B015C0184E6482E59
:10123000512C612C712C0E94A103681979098A092B
:101240009B09683E734081059105A8F3F1E04F1AB0
:1012500051086108710828EE820E23E0921EA11C3D
:10126000B11C411451046104710429F7012B11F5DB
:10127000D0920202C0920102309200028FE380BB42
:101280008093070168E772E082E493E00E944005E2
:1012900064E872E082E493E00E94400568E772E04F
:1012A00085EA92E00E94400564E872E085EA92E0F7
:1012B0000E9440050E94B702C2CE60E070E0CB0100
:1012C00032CF6CA97DA9A801CE0185960E943B0C66
:1012D000E5E2F0E0EC0FFD1FE00FF11F108233CFCD
:1012E0001092E4031092E30366E872E0C9010E94E1
:1012F000340C6BCF809100028823E1F281E992E007
:101300000E9424050E94660480E00E940F058BEE77
:1013100093E00E94CE0181E00E940F0563E972E034
:1013200081EF93E00E94400510920002C3CF8FED41
:1013300093E00E944F0585EE93E00E944F058BEEEF
:1013400093E00C944F051F93FC0199278827BC015B
:10135000E89411911032E9F3193010F01E30C8F3FF
:101360001B3251F01D3249F4689406C00E94CA092C
:10137000610F711D811D911D119110531A30B0F331
:101380003EF490958095709561957F4F8F4F9F4F5C
:101390001F910895592F482F372F262F660F771F3B
:1013A000881F991F660F771F881F991F620F731F71
:1013B000841F951F660F771F881F991F0895F9993D
:1013C000FECF92BD81BDF89A992780B50895262F4A
:1013D000F999FECF1FBA92BD81BD20BD0FB6F8941A
:1013E000FA9AF99A0FBE0196089597FB072E16F404
:1013F000009407D077FD09D00E94110A07FC05D0A0
:101400003EF4909581959F4F0895709561957F4F1B
:101410000895EE0FFF1F881F8BBF0790F691E02DF8
:101420001994AA1BBB1B51E107C0AA1FBB1FA6171B
:10143000B70710F0A61BB70B881F991F5A95A9F77D
:1014400080959095BC01CD0108950F931F93CF9384
:10145000DF938230910510F482E090E0E0910B047C
:10146000F0910C0430E020E0B0E0A0E0309799F477
:101470002115310509F44AC0281B390B24303105E8
:10148000D8F58A819B816115710589F1FB019383F0
:101490008283FE0111C0408151810281138148176E
:1014A0005907E0F04817590799F4109761F0129620
:1014B0000C93129713961C933296CF01DF91CF9124
:1014C0001F910F91089500930B0410930C04F4CF17
:1014D0002115310551F04217530738F0A901DB01FE
:1014E0009A01BD01DF01F801C1CFEF01F9CF90935F
:1014F0000C0480930B04CDCFFE01E20FF31F819308
:1015000091932250310939832883D7CF2091090440
:1015100030910A04232B41F42091050230910602F8
:1015200030930A04209309042091030230910402AD
:101530002115310541F42DB73EB740910702509176
:101540000802241B350BE0910904F0910A04E2170C
:10155000F307A0F42E1B3F0B2817390778F0AC01D6
:101560004E5F5F4F2417350748F04E0F5F1F5093B3
:101570000A0440930904819391939FCFF0E0E0E047
:101580009CCFCF93DF930097E9F0FC013297138251
:101590001282A0910B04B0910C04ED0130E020E028
:1015A0001097A1F420813181820F931F20910904AB
:1015B00030910A042817390709F061C0F0930A0432
:1015C000E0930904DF91CF910895EA01CE17DF0778
:1015D000E8F54A815B819E0141155105B1F7E901AA
:1015E000FB83EA8349915991C40FD51FEC17FD077E
:1015F00061F4808191810296840F951FE90199839E
:101600008883828193819B838A83F0E0E0E0129655
:101610008D919C9113970097B9F52D913C9111975D
:10162000CD010296820F931F2091090430910A0484
:101630002817390739F6309751F510920C0410929B
:101640000B04B0930A04A0930904BCCFD383C283D4
:1016500040815181840F951FC817D90761F44E5FEF
:101660005F4F88819981480F591F518340838A8138
:101670009B81938382832115310509F0B0CFF093CC
:101680000C04E0930B049ECFFD01DC01C0CF13825C
:101690001282D7CF4F925F926F927F928F929F92DA
:1016A000AF92BF92CF92DF92EF92FF920F931F9370
:1016B000CF93DF938C01009799F4CB01DF91CF9109
:1016C0001F910F91FF90EF90DF90CF90BF90AF9060
:1016D0009F908F907F906F905F904F900C94250A11
:1016E000FC01E60FF71F9C0122503109E217F307B6
:1016F00008F4AEC0D901CD91DC911197C617D70778
:1017000020F1C530D10578F0CE01049786179707F0
:1017100050F0C61BD70B2297C193D1936D937C9346
:10172000CF010E94C10AC801DF91CF911F910F9193
:10173000FF90EF90DF90CF90BF90AF909F908F90F1
:101740007F906F905F904F9008955B01AC1ABD0A37
:101750004C018C0E9D1EA0910B04B0910C04512CD9
:10176000412CF12CE12C109731F5809109049091D6
:101770000A048815990509F05CC04616570608F05A
:1017800058C08091030290910402009741F48DB7F4
:101790009EB74091070250910802841B950BE817F1
:1017A000F90708F055C0F0930A04E0930904F90121
:1017B00071836083B8CF8D919C91119712966C9034
:1017C000129713967C901397A815B90559F56C01DB
:1017D00042E0C40ED11CCA14DB0420F1AC014A194A
:1017E0005B09DA011296159780F062827382518349
:1017F0004083D9016D937C93E114F10471F0D7011A
:101800001396FC93EE9312978ECF22968C0F9D1F0A
:10181000F90191838083F301EFCFF0930C04E093FF
:101820000B0481CF4816590608F42C017D01D30121
:101830009ACFCB010E94250A7C01009749F0AE01A6
:10184000B8010E942B0CC8010E94C10A87016BCF0E
:1018500010E000E068CFFB01DC0102C001900D92B6
:1018600041505040D8F70895FB01DC0101900D92E2
:101870000020E1F70895FB01DC014150504048F0A1
:1018800001900D920020C9F701C01D9241505040B7
:10189000E0F7089511E0C0E3D1E000E006C0802F3A
:1018A000FE010E94090A2196011DC133D10780E083
:0818B0000807A9F7F894FFCF27
:1018B80001FFFF00000D0480003F0006005B004FA1
:1018C8000066006D007D0007007F006F00000000CB
:1018D800004A02A101D70197020802E601FA0100B5
:1018E8000000001E05A101C703C603204D656E73E5
:1018F800616A6520415050203A290020202020208C
:10190800202020202020202020200020456A6563F8
:101918007574616E646F20002054656D706F726914
:101928007A61646F7221200046696E616C697A6120
:08193800646F21000D0A00009C
:00000001FF
