:100000000C9428010C9459010C9459010C94590139
:100010000C9459010C9459010C9459010C945901F8
:100020000C9459010C9459010C9459010C945901E8
:100030000C9459010C9459010C9459010C945901D8
:100040000C9459010C9459010C9459010C945901C8
:100050000C9459010C9459010C9459010C9401050C
:100060000C9459010C9475050C944B050C94590192
:100070000C9459010C9459010C9459010C94590198
:100080000C9459010C9459010C9459010C94590188
:100090000C9459010C9459010C9459010C94590178
:1000A0000C9459010C9459010C9459010C94590168
:1000B0000C9459010C9459010C9459010C94590158
:1000C0000C9459010C9459010C9459010C94590148
:1000D0000C9459010C9459010C9459010C94590138
:1000E0000C9459010C94DA010C9400020C94E80170
:1000F0000C94C5010C948B020C949A020C94C101CF
:100100000C94F6010C94E4010C94AE020C94D6010C
:100110000C945E020C9441030C94FC010C94D001ED
:100120000C94E0010C94F2010C94AF010C94BC020D
:100130000C94AA010C94F4020C94C9010C949D0631
:100140000C94EE010C94CD0100000A0B02090C0D79
:100150000E0807030401000000000000000000007A
:10016000000000000000000000000000000000008F
:10017000000000001211100000000000000000004C
:10018000000000000000000000000000000000006F
:100190002200250028002B002E003100340002012F
:1001A0000000050108010B010000210024002700C8
:1001B0002A002D0030003300010100000401070176
:1001C0000A010505050507050808080802020202DC
:1001D0000A0A0808040404040101010101010101E3
:1001E0000303030303030303040707070C0C0C0CAE
:1001F0000C0C0C0C02020202060606060606060697
:100200000B0B0B0B0B0B0B0B010210202008081023
:100210002040102040800201020108040201010276
:10022000040810204080804020100804020180044F
:1002300002018040201008040201080402010102AA
:1002400004081020408001020408102040809D0610
:1002500011241FBECFEFD1E2DEBFCDBF00E00CBF47
:1002600012E0A0E0B2E0ECEEFDE000E00BBF02C067
:1002700007900D92A836B107D9F723E0A8E6B2E0BF
:1002800001C01D92AE30B207E1F711E0C8E2D1E043
:1002900000E006C021970109802FFE010E94EC06B4
:1002A000C732D10780E00807A9F70E94AB050C947C
:1002B000F4060C94000090E0FC01E85FFD4F2491EF
:1002C0008E539E4FFC018491882399F090E0880F13
:1002D000991FFC01E855FE4FA591B491FC01E2572E
:1002E000FE4F859194918FB7F894EC91E22BEC93AB
:1002F0008FBF0895282F30E0F901E85BFE4F9491FD
:10030000F901E85FFD4F44912E533E4FF9012491CE
:10031000222309F435C0992311F191509231F8F458
:10032000E92FF0E08827E856FE4F8F4F0C94EC063B
:10033000C901CD01AA01C101C501AF01D001D6019A
:10034000DA01E001E401E801EE01F201AF01F6019A
:10035000FC010002809180008F7780938000E22F63
:10036000F0E0EE0FFF1FE257FE4FA591B4918FB75B
:10037000F894EC91611148C040954E234C938FBF87
:100380000895809180008F7DE8CF80918000877FE5
:10039000E4CF84B58F7784BDE2CF84B58F7DFBCF6A
:1003A0008091B0008F778093B000D9CF8091B0005A
:1003B0008F7DF9CF809190008F7780939000CFCF81
:1003C000809190008F7DF9CF80919000877FF5CF4D
:1003D0008091A0008F778093A000C1CF8091A00072
:1003E0008F7DF9CF8091A000877FF5CF809120018C
:1003F0008F7780932001B3CF809120018F7DF9CF3B
:1004000080912001877FF5CF4E2BB8CF3FB7F8946E
:1004100080916D0290916E02A0916F02B091700276
:1004200026B5A89B05C02F3F19F00196A11DB11D4F
:100430003FBFBA2FA92F982F8827BC01CD01620F8B
:10044000711D811D911D42E0660F771F881F991F46
:100450004A95D1F708958F929F92AF92BF92CF9213
:10046000DF92EF92FF926B017C010E9406024B012A
:100470005C01C114D104E104F104B9F00E94060248
:10048000681979098A099B09683E734081059105BD
:1004900080F321E0C21AD108E108F10888EE880E45
:1004A00083E0981EA11CB11CE4CFFF90EF90DF9079
:1004B000CF90BF90AF909F908F900895AF92BF92D2
:1004C000CF92DF92EF92FF920F931F93CF93DF9320
:1004D0006C017B018B01040F151FEB015E01AE184F
:1004E000BF08C017D10759F06991D601ED91FC9171
:1004F0000190F081E02DC6011995892B79F7C5018E
:10050000DF91CF911F910F91FF90EF90DF90CF90EF
:10051000BF90AF900895FC01538D448D252F30E09E
:10052000842F90E0821B930B541710F0CF96089500
:1005300001970895FC01918D828D981761F0A28D2D
:10054000AE0FBF2FB11D5D968C91928D9F5F9F73F3
:10055000928F90E008958FEF9FEF0895FC01918DA9
:10056000828D981731F0828DE80FF11D858D90E016
:1005700008958FEF9FEF0895FC01918D228D892FB3
:1005800090E0805C9F4F821B91098F73992708959B
:1005900081E792E00E94BC0221E0892B09F420E06F
:1005A000822F0895FC01A48DA80FB92FB11DA35A65
:1005B000BF4F2C91848D90E001968F739927848F83
:1005C000A689B7892C93A089B1898C9183708064A6
:1005D0008C93938D848D981306C00288F389E02D47
:1005E00080818F7D80830895EF92FF920F931F93F8
:1005F000CF93DF93EC0181E0888F9B8D8C8D9813D6
:100600001AC0E889F989808185FF15C09FB7F894E1
:10061000EE89FF896083E889F9898081837080642D
:1006200080839FBF81E090E0DF91CF911F910F9178
:10063000FF90EF900895F62E0B8D10E00F5F1F4F87
:100640000F731127E02E8C8D8E110CC00FB607FC96
:10065000FACFE889F989808185FFF5CFCE010E9424
:10066000D202F1CFEB8DEC0FFD2FF11DE35AFF4FBE
:10067000F0829FB7F8940B8FEA89FB8980818062B2
:10068000CFCFCF93DF93EC01888D8823B9F0AA896F
:10069000BB89E889F9898C9185FD03C0808186FD3D
:1006A0000DC00FB607FCF7CF8C9185FFF2CF80818C
:1006B00085FFEDCFCE010E94D202E9CFDF91CF912D
:1006C000089580E090E0892B29F00E94C8028111F2
:1006D0000E94000080E090E0892B49F080E090E0EB
:1006E000892B29F00E94000081110E94000080E007
:1006F00090E0892B49F080E090E0892B29F00E945E
:10070000000081110E94000080E090E0892B49F0F8
:1007100080E090E0892B29F00E94000081110C9468
:10072000000008958F929F92AF92BF920F931F93F4
:10073000CF93DF93CDB7DEB7A1970FB6F894DEBFA6
:100740000FBECDBF19A2423008F44AE08E010F5D02
:100750001F4F842E912CB12CA12CA50194010E9435
:10076000CA06E62FB901CA01EA3044F5E05DD801B6
:10077000EE938D01232B242B252B79F790E080E03D
:10078000109769F0FD0101900020E9F73197AF0162
:100790004A1B5B0BBD0181E792E00E945E02A196BD
:1007A0000FB6F894DEBF0FBECDBFDF91CF911F9182
:1007B0000F91BF90AF909F908F900895E95CD7CF35
:1007C000CF92DF92EF92FF92CF93DF936C01990F5C
:1007D000EE08FF08F7FE19C06DE281E792E00E9483
:1007E000F402EC0166277727CB016C197D098E098D
:1007F0009F094AE00E9492038C0F9D1FDF91CF91C9
:10080000FF90EF90DF90CF9008954AE0C701B601C6
:10081000DF91CF91FF90EF90DF90CF900C949203F7
:100820006F927F928F929F92AF92BF92CF92DF9200
:10083000EF92FF920F931F93CF93DF933B0110E052
:1008400000E029E0E22EF12C4C01990FAA08BB0828
:10085000C0910202D09103026E0181E0C81AD10852
:10086000D0920302C092020283E0CC0FDD1F8A9572
:10087000E1F7CC5FDD4F688182E00E947A016A81F6
:1008800083E00E947A016C8184E00E947A016E818B
:1008900085E00E947A01C0910002D0910102CE0150
:1008A0000197909301028093000293E0CC0FDD1F2B
:1008B0009A95E1F7CC5FDD4F688186E00E947A016E
:1008C0006A8187E00E947A016C8188E00E947A0147
:1008D0006E8189E00E947A01C6010E94E00341E036
:1008E00050E066E672E081E792E00E945E0280914D
:1008F0000002909101020E94E00380910202909117
:100900000302892B41F4F0920302E0920202F0927A
:100910000102E09200020F5F1F4FC501B4010E9467
:100920002B026016710609F093CFDF91CF911F91D2
:100930000F91FF90EF90DF90CF90BF90AF909F907E
:100940008F907F906F9008951F93CF93DF93182F10
:1009500061E070E081E090E00E941004C3E0D0E02C
:100960006DE770E080E090E00E942B0260E0812F54
:100970000E947A016DE770E080E090E00E942B0217
:1009800061E0812F0E947A01219751F7DF91CF9189
:100990001F910895FF920F931F93CF93DF93182F0A
:1009A000C62F072FD42FF52E61E0842F0E947A01E5
:1009B00064E070E08EEE92E00E9410048D2F9F2D77
:1009C0000E94A40460E08D2F0E947A0161E08C2FC8
:1009D0000E947A0163E070E08EEE92E00E941004C3
:1009E0008C2F902F0E94A40460E08C2F0E947A012B
:1009F00061E0812FDF91CF911F910F91FF900C94B7
:100A00007A011F920F920FB60F9211242F933F93EA
:100A10008F939F93AF93BF938091690290916A02E5
:100A2000A0916B02B0916C023091680223E0230F19
:100A30002D3758F50196A11DB11D209368028093B2
:100A4000690290936A02A0936B02B0936C0280914A
:100A50006D0290916E02A0916F02B09170020196AA
:100A6000A11DB11D80936D0290936E02A0936F0241
:100A7000B0937002BF91AF919F918F913F912F9151
:100A80000F900FBE0F901F90189526E8230F029627
:100A9000A11DB11DD2CF1F920F920FB60F9211243C
:100AA0000BB60F922F933F934F935F936F937F9368
:100AB0008F939F93AF93BF93EF93FF9381E792E060
:100AC0000E94D202FF91EF91BF91AF919F918F91C0
:100AD0007F916F915F914F913F912F910F900BBE3E
:100AE0000F900FBE0F901F9018951F920F920FB688
:100AF0000F9211240BB60F922F938F939F93EF9326
:100B0000FF93E0918102F09182028081E09187025F
:100B1000F091880282FD1DC0908180918A028F5FD2
:100B20008F7320918B02821741F0E0918A02F0E0EE
:100B3000EF58FD4F958F80938A02FF91EF919F911F
:100B40008F912F910F900BBE0F900FBE0F901F90A3
:100B500018958081F2CF789484B5826084BD84B585
:100B6000816084BD85B5826085BD85B5816085BDA8
:100B700080916E00816080936E0010928100809160
:100B800081008260809381008091810081608093E8
:100B90008100809180008160809380008091B1000D
:100BA00084608093B1008091B00081608093B00038
:100BB000809191008260809391008091910081608A
:100BC000809391008091900081608093900080914B
:100BD000A10082608093A1008091A1008160809338
:100BE000A1008091A00081608093A00080912101EC
:100BF0008260809321018091210181608093210195
:100C00008091200181608093200180917A0084602E
:100C100080937A0080917A00826080937A0080913C
:100C20007A00816080937A0080917A008068809356
:100C30007A001092C100E0918102F091820282E07C
:100C40008083E0917D02F0917E021082E0917F022C
:100C5000F09180028FEC808310928902E0918502EE
:100C6000F091860286E08083E0918302F091840215
:100C7000808180618083E0918302F0918402808191
:100C800088608083E0918302F09184028081806893
:100C90008083E0918302F091840280818F7D808344
:100CA00061E083E30E947A0161E088E10E947A01B9
:100CB00082E00E945B0183E00E945B0184E00E946D
:100CC0005B0185E00E945B0186E00E945B0187E09A
:100CD0000E945B0188E00E945B0189E00E945B0149
:100CE00086E10E945B0183E30E945B0187E10E9431
:100CF0005B0184E30E945B0188E10E945B0185E364
:100D00000E945B0160E086E10E947A0148E150E0C8
:100D100067E170E086E190E00E94CA0460E083E34E
:100D20000E947A0145E350E064E370E083E390E0E1
:100D30000E94CA040E946103E5CFE1E7F2E013825A
:100D4000128288EE93E0A0E0B0E084839583A683CE
:100D5000B78388E592E09183808385EC90E0958766
:100D6000848784EC90E09787868780EC90E0918B75
:100D7000808B81EC90E0938B828B82EC90E0958B62
:100D8000848B86EC90E0978B868B118E128E138E5F
:100D9000148E0895A1E21A2EAA1BBB1BFD010DC0E3
:100DA000AA1FBB1FEE1FFF1FA217B307E407F5071B
:100DB00020F0A21BB30BE40BF50B661F771F881FF7
:100DC000991F1A9469F760957095809590959B018D
:100DD000AC01BD01CF010895EE0FFF1F881F8BBF2F
:0C0DE0000790F691E02D1994F894FFCFD5
:100DEC0009000900000000000000000000000000E5
:100DFC0000000100000000000100000000000000E5
:100E0C0001000100000001000000000000000100D2
:100E1C0000000100000001000100000000000100C2
:100E2C0001000100010000000000000001000000B2
:100E3C000000010000000000F4025E028B0241037E
:080E4C00BC029A02AE020A008A
:00000001FF
