:020000040000FA
:100000000C94DC030C940D040C940D040C940D045E
:100010000C940D040C940D040C940D040C940D041C
:100020000C940D040C940D040C940D040C940D040C
:100030000C940D040C940D040C940D040C940D04FC
:100040000C940D040C940D040C940D040C940D04EC
:100050000C940D040C940D040C940D040C94D10F0D
:100060000C940D040C949B0F0C94710F0C940D04C4
:100070000C940D040C940D040C940D040C940D04BC
:100080000C940D040C940D040C940D040C940D04AC
:100090000C943B0F0C94110F0C940D040C941B103A
:1000A0000C940D040C940D040C940D040C940D048C
:1000B0000C940D040C940D040C940D040C940D047C
:1000C0000C940D040C940D040C940D040C940D046C
:1000D0000C940D040C940D040C940D040C940D045C
:1000E0000C940D040C94C2070C9402080C94630445
:1000F0000C94D6040C94A3050C9472040C94C20CBA
:100100000C94C1050C94EF0B0C94810D0C94940588
:100110000C94EF060C94FB0A0C94F0150C94B60C9E
:100120000C9494040C94AD050C945A0B0C94EC07AD
:100130000C94A0050C9436040C9423050C94B7057C
:100140000C94CE050C94820D0C94290A0C94CF05C6
:100150000C948E050C94CE0C0C9498050C94B3055D
:100160000C94C9050C94D3050C946D0C0C94C50526
:100170000C943B110C94A60C0C94BB050C94340C01
:100180000C94A9050C949C050C94D50C0C948D0E24
:100190000C94860400000000003E5B4F5B3E3E6B0B
:1001A0004F6B3E1C3E7C3E1C183C7E3C181C577D11
:1001B000571C1C5E7F5E1C00183C1800FFE7C3E75D
:1001C000FF0018241800FFE7DBE7FF30483A060E6F
:1001D0002629792926407F050507407F05253F5AB6
:1001E0003CE73C5A7F3E1C1C08081C1C3E7F142226
:1001F0007F22145F5F005F5F06097F017F006689D1
:10020000956A606060606094A2FFA29408047E0416
:100210000810207E201008082A1C08081C2A08083C
:100220001E101010100C1E0C1E0C30383E383006FC
:100230000E3E0E06000000000000005F00000007F8
:10024000000700147F147F14242A7F2A1223130826
:10025000646236495620500008070300001C224102
:10026000000041221C002A1C7F1C2A08083E0808A6
:100270000080703000080808080800006060002056
:10028000100804023E5149453E00427F4000724939
:100290004949462141494D331814127F10274545DD
:1002A00045393C4A494931412111090736494949F3
:1002B00036464949291E0000140000004034000061
:1002C00000081422411414141414004122140802CA
:1002D000015909063E415D594E7C1211127C7F493D
:1002E0004949363E414141227F4141413E7F494992
:1002F00049417F090909013E414151737F080808BE
:100300007F00417F41002040413F017F081422418E
:100310007F404040407F021C027F7F0408107F3EE8
:100320004141413E7F090909063E4151215E7F0955
:10033000192946264949493203017F01033F4040BC
:10034000403F1F2040201F3F4038403F63140814A7
:100350006303047804036159494D43007F414141DF
:100360000204081020004141417F040201020440C0
:1003700040404040000307080020545478407F2844
:100380004444383844444428384444287F3854543A
:10039000541800087E090218A4A49C787F0804045D
:1003A0007800447D40002040403D007F10284400FC
:1003B00000417F40007C047804787C08040478388D
:1003C00044444438FC1824241818242418FC7C08BD
:1003D000040408485454542404043F44243C40403A
:1003E000207C1C2040201C3C4030403C44281028ED
:1003F000444C9090907C4464544C44000836410036
:100400000000770000004136080002010204023CAF
:100410002623263C1EA1A161123A4040207A38547E
:1004200054555921555579412254547842215554F7
:10043000784020545579400C1E527212395555554A
:1004400059395454545939555454580000457C4135
:100450000002457D420001457C407D1211127DF075
:10046000282528F07C545545002054547C547C0A9F
:10047000097F4932494949323A4444443A324A4868
:1004800048303A4141217A3A42402078009DA0A06C
:100490007D3D4242423D3D4040403D3C24FF2424BE
:1004A000487E4943662B2FFC2F2BFF0929F620C0DD
:1004B000887E090320545479410000447D4130482E
:1004C000484A32384040227A007A0A0A727D0D1971
:1004D000317D2629292F28262929292630484D40D3
:1004E00020380808080808080808382F10C8ACBACF
:1004F0002F102834FA00007B000008142A1422224E
:10050000142A14085500550055AA55AA55AAFF5596
:10051000FF55FF000000FF00101010FF001414141E
:10052000FF001010FF00FF1010F010F0141414FC66
:10053000001414F700FF0000FF00FF1414F404FC83
:10054000141417101F10101F101F1414141F001064
:100550001010F0000000001F101010101F101010DD
:1005600010F010000000FF101010101010101010EC
:10057000FF10000000FF140000FF00FF00001F102C
:10058000170000FC04F414141710171414F404F4E6
:100590000000FF00F714141414141414F700F714D7
:1005A0001414171410101F101F141414F414101026
:1005B000F010F000001F101F0000001F14000000CA
:1005C000FC140000F010F01010FF10FF141414FFC2
:1005D000141010101F00000000F010FFFFFFFFFFBD
:1005E000F0F0F0F0F0FFFFFF0000000000FFFF0F51
:1005F0000F0F0F0F3844443844FC4A4A4A347E02F5
:10060000020606027E027E02635549416338444475
:100610003C04407E201E2006027E020299A5E7A52A
:10062000991C2A492A1C4C7201724C304A4D4D309B
:100630003048784830BC625A463D3E494949007EC0
:100640000101017E2A2A2A2A2A44445F4444405157
:100650004A444040444A51400000FF0103E080FF0B
:10066000000008086B6B083612362436060F090F97
:1006700006000018180000001010003040FF0101B3
:10068000001F01011E00191D1712003C3C3C3C00DC
:100690000000000000002200250028002B002E0092
:1006A0003100340002010000050108010B010000C7
:1006B00020002300260029002C002F00320000011A
:1006C000000003010601090100000A0B02090C0DDC
:1006D0000E080703040100000000000000000000F5
:1006E000000000000000000000000000000000000A
:1006F00000000000121110000000000000000000C7
:1007000000000000000000000000000000000000E9
:100710002100240027002A002D00300033000101B1
:100720000000040107010A0101021020200808103E
:100730002040102040800201020108040201010251
:10074000040810204080804020100804020180042A
:100750000201804020100804020108040201010285
:100760000408102040800102040810204080050584
:100770000505070508080808020202020A0A080817
:100780000404040401010101010101010303030345
:1007900003030303040707070C0C0C0C0C0C0C0CD4
:1007A0000202020206060606060606060B0B0B0BE5
:1007B0000B0B0B0B3B11F01511241FBECFEFD1E239
:1007C000DEBFCDBF00E00CBF12E0A0E0B2E0E2E48B
:1007D000F5E300E00BBF02C007900D92A03CB1070B
:1007E000D9F724E0A0ECB2E001C01D92A63BB2070D
:1007F000E1F713E0CBEDD3E000E006C0219701095B
:10080000802FFE010E945118CA3DD10780E00807E1
:10081000A9F70E94F1120C948F1A0C940000FC01AD
:10082000A089B18982E08C93A485B5851C92A685A8
:10083000B7858FEC8C93108EA489B58986E08C9354
:10084000A289B3898C9180618C93A289B3898C91A0
:1008500088608C93A289B3898C9180688C9302887C
:10086000F389E02D80818F7D80830895AF92BF92C0
:10087000CF92DF92EF92FF920F931F93CF93DF936C
:100880006C017B018B01040F151FEB015E01AE189B
:10089000BF08C017D10759F06991D601ED91FC91BD
:1008A0000190F081E02DC6011995892B79F7C501DA
:1008B000DF91CF911F910F91FF90EF90DF90CF903C
:1008C000BF90AF900895FC01538D448D252F30E0EB
:1008D000842F90E0821B930B541710F0CF9608954D
:1008E00001970895FC01918D828D981761F0A28D7A
:1008F000AE0FBF2FB11D5D968C91928D9F5F9F7340
:10090000928F90E008958FEF9FEF0895FC01918DF5
:10091000828D981731F0828DE80FF11D858D90E062
:1009200008958FEF9FEF0895FC01918D228D892FFF
:1009300090E0805C9F4F821B91098F7399270895E7
:100940008DE393E00E94940421E0892B09F420E0D8
:10095000822F08958AED93E00E94940421E0892B70
:1009600009F420E0822F0895FC01A48DA80FB92F6F
:10097000B11DA35ABF4F2C91848D90E001968F73C7
:100980009927848FA689B7892C93A089B1898C91E6
:10099000837080648C93938D848D981306C0028835
:1009A000F389E02D80818F7D80830895EF92FF92FF
:1009B0000F931F93CF93DF93EC0181E0888F9B8D82
:1009C0008C8D98131AC0E889F989808185FF15C03C
:1009D0009FB7F894EE89FF896083E889F98980815F
:1009E0008370806480839FBF81E090E0DF91CF912E
:1009F0001F910F91FF90EF900895F62E0B8D10E050
:100A00000F5F1F4F0F731127E02E8C8D8E110CC0BE
:100A10000FB607FCFACFE889F989808185FFF5CF09
:100A2000CE010E94B404F1CFEB8DEC0FFD2FF11D30
:100A3000E35AFF4FF0829FB7F8940B8FEA89FB8946
:100A400080818062CFCFCF93DF93EC01888D8823A4
:100A5000B9F0AA89BB89E889F9898C9185FD03C021
:100A6000808186FD0DC00FB607FCF7CF8C9185FF06
:100A7000F2CF808185FFEDCFCE010E94B404E9CF93
:100A8000DF91CF91089580E090E0892B29F00E94BA
:100A9000AA0481110E94000080E090E0892B29F0D7
:100AA0000E94A00481110E94000080E090E0892B48
:100AB00049F080E090E0892B29F00E94000081112C
:100AC0000E94000080E090E0892B49F080E090E0F7
:100AD000892B29F00E94000081110C9400000895D8
:100AE0008150823108F05AC0E82FF0E08827E4589E
:100AF000FA4F8F4F0C9451189C05A0058E05940554
:100B00009805CE05A305A905AD05B305B705BB0539
:100B1000C105C505CE05C905CF05D3058091800067
:100B20008F77809380000895809180008F7DF9CF2A
:100B300080918000877FF5CF84B58F7784BD08953D
:100B400084B58F7DFBCF8091B0008F778093B0000C
:100B500008958091B0008F7DF9CF809190008F77BC
:100B6000809390000895809190008F7DF9CF8091BF
:100B70009000877FF5CF8091A0008F778093A000B1
:100B800008958091A0008F7DF9CF8091A000877F8C
:100B9000F5CF809120018F77809320010895809177
:100BA00020018F7DF9CF80912001877FF5CFCF93F2
:100BB000DF93282F30E0F901E853F94F8491F901D0
:100BC000E85DF84FD491F901E259F84FC491CC2374
:100BD000A1F081110E947005EC2FF0E0EE0FFF1FD5
:100BE000E255F94FA591B491EC91ED2381E090E0AD
:100BF00009F480E0DF91CF91089580E090E0FACF92
:100C00001F93CF93DF93282F30E0F901E853F94F7A
:100C10008491F901E85DF84FD491F901E259F84F58
:100C2000C491CC23A9F0162F81110E947005EC2FDE
:100C3000F0E0EE0FFF1FEC56F94FA591B4918FB77E
:100C4000F894EC91111108C0D095DE23DC938FBF8E
:100C5000DF91CF911F910895DE2BF8CFCF93DF93D3
:100C6000C82FD62F60E080919B040E9400069FEF62
:100C70009C0F80919E04890F8850CEBD00000DB45A
:100C800007FEFDCF2EB52D2FC93038F4E0919C041E
:100C9000F0919D04E80FF11D20812EBD00000DB4E0
:100CA00007FEFDCF2EB5981738F361E080919B04C5
:100CB000DF91CF910C940006CF93C8E060E08C2FB9
:100CC0000E942E06C150D1F7CF910895CF93DF93A4
:100CD00090E0FC01E85DF84F24918259984FFC01A7
:100CE00084918823D1F090E0880F991FFC01E25F86
:100CF000F84FA591B491FC01EC56F94FC591D491F0
:100D000061110EC09FB7F8948C91E22FE0958E236D
:100D10008C932881E223E8839FBFDF91CF910895D0
:100D20008FB7F894EC91E22BEC938FBFF6CF3FB7DF
:100D3000F8948091360390913703A0913803B091D5
:100D4000390326B5A89B05C02F3F19F00196A11DB8
:100D5000B11D3FBFBA2FA92F982F8827BC01CD0105
:100D6000620F711D811D911D42E0660F771F881F64
:100D7000991F4A95D1F708958F929F92AF92BF9293
:100D8000CF92DF92EF92FF926B017C010E94970657
:100D90004B015C01C114D104E104F104B9F00E94DB
:100DA0009706681979098A099B09683E734081058D
:100DB000910580F321E0C21AD108E108F10888EE1C
:100DC000880E83E0981EA11CB11CE4CFFF90EF9029
:100DD000DF90CF90BF90AF909F908F900895EF924B
:100DE000FF920F931F93CF93DF93FC017901342F70
:100DF0008689882309F493C0823038F0C085D18574
:100E000021978E01061B170BB8019FEF980F9230A8
:100E100018F432853150341B80FF81C0862F632F38
:100E200070E0382F44815581641775070CF079C044
:100E3000832F90E0C681D7818C179D070CF071C07D
:100E4000278DA3E095958795AA95E1F7289F8001C6
:100E5000299F100D1124CB01B3E095958795BA9584
:100E6000E1F7C0A1D1A1C00FD11FC80FD91F888140
:100E7000EB01C770DD273770082F10E062A173A166
:100E8000600F711FDB019C91923030F067E070E0E1
:100E9000DB01AC1BBD0BED016FEF690F623018F485
:100EA00067E0631B362F90FF04C09C2FC32FD0E058
:100EB000392F622F0E943118982F990F990F990F8F
:100EC000390FB801289F60197109112483E0660F5A
:100ED000771F8A95E1F76C0F7D1F832F90E023E049
:100EE000959587952A95E1F7849FE001859FD00D20
:100EF000949FD00D11246C0F7D1F048CF58DE02D77
:100F0000E60FF71F377081E090E001C0880F3A9537
:100F1000EAF72081EF2861F0822B808302C077FFFF
:100F200081CFDF91CF911F910F91FF90EF900895A6
:100F300080958223F2CF2091E702260F3327331FBB
:100F400021323105ECF420910B03FC0190E080E0AC
:100F5000243069F082E00895A091E7022191AC016C
:100F600049535D4FA40FB52FB11D2C9301968617E1
:100F700098F38091E702680F6093E70280E008959C
:100F800081E0089508958FEF9FEF08958FEF9FEF11
:100F900008958091C00290E09195819591090895FE
:100FA000CF93DF93CB01EA01642F0E949B07CE0110
:100FB000DF91CF910895CF93DF931F92CDB7DEB726
:100FC000698361E0CE0101960E949B0781E090E079
:100FD0000F90DF91CF9108950895FC016370668BA7
:100FE0008481958126813781613039F0633029F021
:100FF0009187808733872287089531872087938759
:10100000828708950C94ED072F923F924F925F9242
:101010006F927F928F929F92AF92BF92CF92DF9208
:10102000EF92FF920F931F93CF93DF93CDB7DEB76D
:101030006A970FB6F894DEBF0FBECDBF9A8F898F27
:101040007A8369834A01D22E18870F833701BC2C1B
:10105000DC0159962D913C915A972115310509F0E3
:1010600015C118968D919C911997681779070CF006
:10107000D7C11A968D919C91481759070CF0D0C191
:101080004C2C512CB6E0CB9E600D711D11247C8739
:101090006B87161617060CF0C3C1EA2DF0E0FA872D
:1010A000E98793E0EE0FFF1F9A95E1F7F88BEF8742
:1010B000CF01840F951F181619060CF0B1C1A98D28
:1010C000BA8D58968C91811104C0BFEABD1508F401
:1010D000D394A98DBA8DED91FC9111970284F3857B
:1010E000E02DCD011995B5E0DB9EC0011124E98109
:1010F000FA81FC83EB83312C212C9C012C563E4F32
:10110000388F2F8B4A2D50E05E8B4D8BEF89F88DF9
:10111000E20DF31D44919E828D82D12CC12C6981F8
:101120007A81620D731D7A8B698B842F90E09C8B82
:101130008B8BE98DFA8DA081B18140FF82C0F1E0F7
:10114000BF126FC0AF126DC01C96ED91FC912F8144
:101150003885A4014C0D5D1D69897A89898D9A8D28
:101160001995EB89FC89F595E7954E2F5FEFC51A28
:10117000D50A6D817E818D899E89680F791F7E8356
:101180006D8398E0C916D10481F6AFEF2A1A3A0AA6
:10119000EB81FC81E40DF51DFC83EB83F5E02F165C
:1011A000310409F0B3CF2F81388526153705B9F002
:1011B000A98DBA8DED91FC91B1E0BB1257C0AB1275
:1011C00055C069817A816B5F7F4F0088F189E02D7E
:1011D000830128E030E0A401898D9A8D1995A98DAD
:1011E000BA8DED91FC9111970688F789E02DCD011C
:1011F0006A960FB6F894DEBF0FBECDBFDF91CF91D8
:101200001F910F91FF90EF90DF90CF90BF90AF9024
:101210009F908F907F906F905F904F903F902F9016
:1012200019941E96ED91FC91EF80F88409851A853A
:1012300092014D815E816B817C81898D9A8D19959A
:1012400090CF2F8138852615370509F48ACF31E0F4
:10125000B31207C0A31205C01C96ED91FC91930137
:1012600078CF1E96ED91FC917301E0CF6B857C8564
:10127000641975090684F785E02D73010F851889B7
:101280009201A401898D9A8D1995A9CFF9013496FF
:101290009491329745915491D91AB7E0DB9E400D55
:1012A000511D1124F901259134913C8B2B8BFA01AE
:1012B00025903490FA013296749031963491398B9E
:1012C000329664903196449041E04C1518F04A15DE
:1012D00008F07FC0662D062C000C770B7C836B8397
:1012E000842D042C000C990B9E838D83A98DBA8DBF
:1012F000ED91FC9111970284F385E02DCD011995B4
:10130000512CD12CC12CEA2DF0E0FA87E9872B2D46
:1013100030E03C872B87A401440D511D47FC5A95B2
:10132000588F4F8B69817A81660D711D67FC7A95A4
:101330007E876D877989C71608F051CF2C2D30E054
:101340004D815E81420F531FA985BA854A9FC00116
:101350004B9F900D5A9F900D1124FC01E80DF91D33
:10136000F88BEF87852D612C4F89588D420F531FC5
:101370005E8B4D8B671408F050C044244394480E94
:10138000877041F4C1010196EB89FC89E20DF31DE0
:10139000D4901C01D7FE19C0A98DBA8DED91FC9196
:1013A000662D70E0B1E0BB1219C0AB1217C02D85DD
:1013B0003E85620F731F0484F585E02D2F813885EB
:1013C0004D895E89898D9A8D1995DD0C6394842DE4
:1013D000D1CF1E821D821C821B8288CF4B815C81F3
:1013E000640F751FAB85BC856A9FC0016B9F900D14
:1013F0007A9F900D112469817A81680F791F068484
:10140000F785E02DEF80F88409851A859D014F85C9
:101410005889898D9A8D1995D8CF570CC3948ACF46
:101420006A960FB6F894DEBF0FBECDBFDF91CF91A5
:101430001F910F91FF90EF90DF90CF90BF90AF90F2
:101440009F908F907F906F905F904F903F902F90E4
:1014500008958F929F92AF92CF92EF92FF920F9347
:101460001F93CF93DF93EC01262F898D9A8D0097E0
:1014700009F051C06A30D1F41D861C868D8948E080
:10148000849F900111248E859F85820F931F9F87D3
:101490008E8781E090E0DF91CF911F910F91FF90B7
:1014A000EF90CF90AF909F908F9008956D3089F31B
:1014B000CC88AD888F898823C1F08C859D8536E0E6
:1014C000C39E800D911D11244885598548175907E1
:1014D00064F44E855F851D861C8638E0A39EC0019E
:1014E0001124840F951F9F878E87EA88FB880889BF
:1014F00019894E855F856C857D85CE010E94040823
:101500002C898C859D8546E0249F800D911D11249A
:101510009D878C87BECF6A3069F41D861C86FC01CE
:101520003896E4912D898E859F85E29F800D911DCF
:101530001124ADCF6D3009F4ACCFFC013496349159
:10154000631708F4A6CF3296E491E61708F4A1CF0A
:10155000FC01329685909490462F431B342F47E030
:10156000349F800C911C1124F401329634913196F1
:10157000E4913323A9F1EE2399F1CC88F401359657
:10158000E491AD884F89442301F10E2E000CFF0B2E
:10159000E30FF11DCE9EA001CF9E500D11246C854E
:1015A0007D85460F571F68857985641775076CF42C
:1015B0004E855F851D861C86FC013896E491AE9EA3
:1015C000400D511D11245F874E87EA88FB880889EA
:1015D00019894E855F856C857D85CE010E94040842
:1015E000F4013496E4912C898C859D85E29F800DD1
:1015F000911D11248DCF6F927F928F929F92AF9207
:10160000BF92CF92DF92EF92FF920F931F93CF93EF
:10161000DF93EC016B015A0139014801E881F9813E
:101620000284F385E02D1995E881F9810288F38918
:10163000E02D87019301A501B601CE011995A50101
:10164000480D591D41505109E881F9810288F389FB
:10165000E02D9301B601CE011995E881F98100884A
:10166000F189E02D9401A501B601CE011995C60CB2
:10167000D71CB60161507109E881F9810088F189B0
:10168000E02D9401A501CE011995E881F981068824
:10169000F789E02DCE01DF91CF911F910F91FF903F
:1016A000EF90DF90CF90BF90AF909F908F907F9002
:1016B0006F9019946F927F928F929F92AF92BF9288
:1016C000CF92DF92EF92FF920F931F93CF93DF930E
:1016D0005C01EB016A01490138018701DC01ED91F0
:1016E000FC916217730719F5641675062CF0962D98
:1016F000872D3A01C92ED82E9601261937092F5F5A
:101700003F4F048CF58DE02DA301BE01C501199555
:10171000DF91CF911F910F91FF90EF90DF90CF90CD
:10172000BF90AF909F908F907F906F9008954615D7
:10173000570591F42617370724F0892D4B01C22F46
:10174000D82F9E01281939092F5F3F4F068CF78D3E
:10175000E02DA601B401DACF0284F385E02D1995BE
:10176000D501ED91FC910488F589E02D8301940168
:10177000A601BE01C5011995D501ED91FC91068820
:10178000F789E02DC501DF91CF911F910F91FF9057
:10179000EF90DF90CF90BF90AF909F908F907F9011
:1017A0006F901994EF92FF920F931F93DC011A969A
:1017B0000D911C911B9718962D913C911997ED91C5
:1017C000FC9100A0F1A1E02D7B0150E040E070E031
:1017D00060E019951F910F91FF90EF9008954F923F
:1017E0005F926F927F928F929F92AF92BF92CF92B1
:1017F000DF92EF92FF920F931F93CF93DF936C01D1
:101800002B015A0139014801DC01ED91FC91028460
:10181000F385E02D1995E201640C751CD601ED915C
:10182000FC91C615D7055CF40088F189E02D87018D
:101830009401A501BE01C60119952196EFCF068836
:10184000F789E02DC601DF91CF911F910F91FF9095
:10185000EF90DF90CF90BF90AF909F908F907F9050
:101860006F905F904F9019948F929F92AF92BF921A
:10187000CF92DF92EF92FF920F931F93CF93DF935C
:10188000EC015B014A016901E881F9810284F38579
:10189000E02D199595012C0D3D1D21503109E88150
:1018A000F9810488F589E02D78018401A401B5014E
:1018B000CE011995E881F9810688F789E02DCE01DE
:1018C000DF91CF911F910F91FF90EF90DF90CF901C
:1018D000BF90AF909F908F9019948F929F92AF92EC
:1018E000BF92CF92DF92EF92FF920F931F93CF930D
:1018F000DF93EC015B014A0169017801E881F9811C
:101900000284F385E02D1995C80CD91C860101507D
:101910001109E881F9810488F589E02D9501A40178
:10192000B501CE011995E881F9810688F789E02D86
:10193000CE01DF91CF911F910F91FF90EF90DF903B
:10194000CF90BF90AF909F908F901994EF92FF929D
:101950000F931F93DC01ED91FC9100A0F1A1E02D0C
:1019600019951F910F91FF90EF9008950F931F937A
:10197000DC01ED91FC91068CF78DE02D19951F91FE
:101980000F9108950F931F93DC01ED91FC91048C4E
:10199000F58DE02D19951F910F910895DC01ED91C2
:1019A000FC910084F185E02D19942F923F924F9283
:1019B0005F926F927F928F929F92AF92BF92CF92DF
:1019C000DF92EF92FF920F931F93CF93DF9300D09C
:1019D00000D0CDB7DEB73C016A013E832D83FC8287
:1019E000EB825801A41AB50AB7FE03C0B194A194C2
:1019F000B1088D809E80861A970A97FE03C0919445
:101A0000819491088A149B045CF0902F812F0D81A2
:101A10001E819D838E839C2D8D2D6B01692F782FC8
:101A20000C151D055CF09D818E817E836D83692F71
:101A3000782F902F812F8601C92ED82E1601201ABB
:101A4000310A2B012D813E81421A530A57FE03C0F1
:101A5000519441945108710137FE03C03FEFE31ADE
:101A6000F30AF594E7948D819E81861797075CF5BC
:101A7000A1E0B0E0BA83A983C016D1064CF1D3012E
:101A8000ED91FC910484F585E02D2B813C81A8012A
:101A90006D817E818A149B041CF04D815E81B801AA
:101AA000C3011995E418F508F7FE0AC02D813E819F
:101AB00089819A81280F391F3E832D83E20CF31C04
:101AC0000F5F1F4FD9CF2FEF3FEF3A832983D4CF3A
:101AD00026960FB6F894DEBF0FBECDBFDF91CF9133
:101AE0001F910F91FF90EF90DF90CF90BF90AF903C
:101AF0009F908F907F906F905F904F903F902F902E
:101B00000895089590E080E00895FB010190002081
:101B1000E9F73197AF01461B570B0C9436048F92AF
:101B20009F92AF92BF920F931F93CF93DF93CDB746
:101B3000DEB7A1970FB6F894DEBF0FBECDBF19A2D6
:101B4000423008F44AE08E010F5D1F4F842E912C25
:101B5000B12CA12CA50194010E94CA17E62FB9014E
:101B6000CA01EA3004F5E05DD801EE938D01232B24
:101B7000242B252B79F790E080E0109729F0BD0108
:101B80008DE393E00E94850DA1960FB6F894DEBF19
:101B90000FBECDBFDF91CF911F910F91BF90AF903E
:101BA0009F908F900895E95CDFCFCF92DF92EF9204
:101BB000FF92CF93DF936B017C016DE28DE393E0A5
:101BC0000E94D604EC0166277727CB016C197D09AA
:101BD0008E099F094AE00E948F0D8C0F9D1FDF9197
:101BE000CF91FF90EF90DF90CF9008950F931F93C8
:101BF000CF93DF938C01D0E0C0E06115710519F03F
:101C00000E94850DEC0160E572E0C8010E94850D1F
:101C10008C0F9D1FDF91CF911F910F910895CF924F
:101C2000DF92EF92FF92CF93DF9380917B00877FCB
:101C300080937B0080E480937C0080917A008064B4
:101C400080937A0080917A0086FDFCCF60917800C5
:101C500070917900072E000C880B990B0E949F163B
:101C600020E030E040E85AE30E94DA1620E030E05D
:101C700048EC52E40E94DA160E94FB176B0163E500
:101C800072E08DE393E00E94850DB6010D2C000CEF
:101C9000880B990B97FF3BC00E94D50D60E572E061
:101CA0008DE393E00E94850DC6010197C4EFD1E05A
:101CB0008E31910580F04E97CAEFD0E04E9758F0E4
:101CC0008DE3C81AD108C9E1D0E088E2C816D10472
:101CD00010F0D0E0C0E069E672E08DE393E00E948E
:101CE000850DBE010D2E000C880B990B4AE00E9459
:101CF0008F0D6CE772E08DE393E00E94F60DCE014C
:101D0000DF91CF91FF90EF90DF90CF9008954AE060
:101D10000E948F0DC3CF0E94731AFC01468D50E0C4
:101D2000672B39F470E060E0FC01848D958D0C9494
:101D3000811A6FEF70E0F8CF1F93CF93DF9385ED9B
:101D40008093BC008091C3029091C402A091C5020F
:101D5000B091C6020796A11DB11D23E0B695A795C7
:101D6000979587952A95D1F72091BC0024FD03C053
:101D700010920B0352C04091C3025091C402609173
:101D8000C5027091C602452B462B472B69F300977D
:101D9000A105B10541F02AE22A95F1F700C00197AB
:101DA000A109B109E1CF8091C202C1E0C093C10293
:101DB000882399F1D091B8001091BA008091BC00AD
:101DC0008A7B8093BC0060E084E10E94000660E0B2
:101DD00085E10E94000610920B03C0930D03109240
:101DE0000C0361E084E10E94000661E085E10E944D
:101DF00000068091B9008E7F8093B9008091B90070
:101E00008D7F8093B90088E48093B80085E4809347
:101E1000BC001093BA00D093B800DF91CF911F910E
:101E200008951F920F920FB60F9211240BB60F92C6
:101E30002F933F934F935F936F937F938F939F93D2
:101E4000AF93BF93EF93FF938DE393E00E94B404AD
:101E5000FF91EF91BF91AF919F918F917F916F9182
:101E60005F914F913F912F910F900BBE0F900FBE3E
:101E70000F901F9018951F920F920FB60F9211247A
:101E80000BB60F922F938F939F93EF93FF93E09155
:101E90004D03F0914E038081E0915303F091540380
:101EA00082FD1DC09081809156038F5F8F732091BA
:101EB0005703821741F0E0915603F0E0E35CFC4FDA
:101EC000958F80935603FF91EF919F918F912F9162
:101ED0000F900BBE0F900FBE0F901F901895808132
:101EE000F2CF1F920F920FB60F9211240BB60F92E2
:101EF0002F933F934F935F936F937F938F939F9312
:101F0000AF93BF93EF93FF938AED93E00E94B404E5
:101F1000FF91EF91BF91AF919F918F917F916F91C1
:101F20005F914F913F912F910F900BBE0F900FBE7D
:101F30000F901F9018951F920F920FB60F921124B9
:101F40000BB60F922F938F939F93EF93FF93E09194
:101F5000EA03F091EB038081E091F003F091F1034B
:101F600082FD1DC090818091F3038F5F8F7320915C
:101F7000F403821741F0E091F303F0E0E652FC4FE6
:101F8000958F8093F303FF91EF919F918F912F9104
:101F90000F900BBE0F900FBE0F901F901895808171
:101FA000F2CF1F920F920FB60F9211242F933F93EF
:101FB0008F939F93AF93BF9380913203909133039C
:101FC000A0913403B09135033091310323E0230F06
:101FD0002D3758F50196A11DB11D20933103809333
:101FE000320390933303A0933403B093350380916D
:101FF000360390913703A0913803B09139030196CD
:10200000A11DB11D8093360390933703A09338032D
:10201000B0933903BF91AF919F918F913F912F91D1
:102020000F900FBE0F901F90189526E8230F029671
:10203000A11DB11DD2CF1F920F920FB60F92112486
:102040000BB60F922F933F934F935F936F937F93B2
:102050008F939F93AF93BF93EF93FF938091B900BA
:10206000887F803609F44DC008F040C0883209F4FA
:10207000A7C028F5803109F49BC0C8F4882309F46F
:10208000F7C0883009F494C0FF91EF91BF91AF91F0
:102090009F918F917F916F915F914F913F912F9180
:1020A0000F900BBE0F900FBE0F901F9018958831A8
:1020B00009F486C0803241F780930A0314C080344B
:1020C00009F49BC040F48033B9F38833E9F6809378
:1020D0000A0385ECAEC0803509F483C0883509F465
:1020E00094C0883489F60E949C0ECECF883909F4BA
:1020F0008AC038F5883729F050F4883611F08037D7
:1021000019F683E080930B031092090355C08838B9
:1021100009F479C0803919F0803809F0B5CF809181
:102120000903803208F06FC0E091090381E08E0F4F
:10213000809309038091BB00F0E0E751FD4F80835D
:102140003BC0803B39F0D0F4803A09F477C0883A3C
:1021500009F09ACF84E080930B031092E80210926A
:10216000E702F0E0E0E019958091E70281110FC0ED
:1021700081E08093E7021092C70209C0803C09F415
:10218000A8CF883C09F4A5CF883B09F07DCFE0912A
:10219000E80281E08E0F8093E802F0E0E953FD4F02
:1021A00080818093BB009091E8028091E70229C072
:1021B000809130038093BB0085EC8093BC0064CF9A
:1021C00090912F0380912E03981758F5E0912F03DB
:1021D00081E08E0F80932F03F0E0E25FFC4F80815F
:1021E000E9CFE0912F0381E08E0F80932F03809140
:1021F000BB00F0E0E25FFC4F808390912F03809161
:102200002E039817C8F285E8D8CFE0912F0381E01C
:102210008E0F80932F038091BB00F0E0E25FFC4FB4
:10222000808380910D0381115ECF81E080930C0348
:1022300084EA8093BC0010920B0326CF85EC809338
:10224000BC0010920B0380910903803230F4E091BE
:102250000903F0E0E751FD4F10826091090370E03F
:1022600089EE92E0F0E0E0E01995109209030CCFBE
:1022700010920A0338CF0F931F93CF93109240030D
:1022800010923F0348EE53E060E070E0409341035A
:1022900050934203609343037093440386E192E0BA
:1022A00090933E0380933D032DEC30E030934A033E
:1022B000209349032CEC30E030934C0320934B03E4
:1022C00028EC30E030934E0320934D0329EC30E0AE
:1022D0003093500320934F032AEC30E030935203A5
:1022E000209351032EEC30E030935403209353039A
:1022F00010925603109257031092580310925903EC
:102300001092DD031092DC034093DE035093DF0351
:102310006093E0037093E1039093DB038093DA030F
:1023200085EC90E09093E7038093E60384EC90E0E3
:102330009093E9038093E80380EC90E09093EB03A3
:102340008093EA0381EC90E09093ED038093EC039B
:1023500082EC90E09093EF038093EE0386EC90E0A4
:102360009093F1038093F0031092F3031092F4031F
:102370001092F5031092F6031092A4041092A50493
:102380001092A6041092A7041092A8041092A90417
:102390001092AA041092AB041092AD041092AC04F7
:1023A0001092AE041092AF0481E090E09093B104DB
:1023B0008093B004109283041092820428E030E0ED
:1023C000309385042093840480E190E09093870407
:1023D00080938604309389042093880490938B041F
:1023E00080938A041092960410928D0410928C04AB
:1023F00010928F0410928E04C1E0C0939504C09394
:1024000094048FEF9FEF90939304809392049093A2
:10241000910480939004C0939704109298041092B2
:102420009A041092990488E292E090938104809338
:1024300080048AE080939B04C0939F0480E1809392
:102440009E0480E190E00E946D1890939D0480931B
:102450009C0482E090E00E946D188C019093A3048C
:102460008093A20482E090E00E946D189093A104F2
:102470008093A004FC011082F8011082FC01C1834A
:10248000F8011182CFB7F89480917704811127C0A9
:10249000E3EAF7E08491EDE5F7E09491E82FF0E0CE
:1024A000EE0FFF1FE25FF84FA591B491EC91E92385
:1024B00021F461E085E30E94000661E085E30E946B
:1024C00066068CB580618CBD8CB580648CBD61E086
:1024D00084E30E94660661E083E30E9466068091C1
:1024E00077048F5F80937704CFBF61E080919B0476
:1024F0000E94660670E060E080E894E00E948D0E25
:1025000060E08FE00E942E0667E08BE00E942E06BE
:1025100060E089E00E942E0661E08CE00E942E06B9
:1025200067E08AE00E942E0610927B0410927A04E3
:1025300010927D0410927C0410927F0410927E040D
:102540006BE070E090E080E00E949219009709F142
:1025500090937B0480937A042AE030E030937D04EA
:1025600020937C0420917E0430917F04232B11F46E
:10257000FC0110828AE090E090937F0480937E04B7
:1025800060E872E080917A0490917B040E94881A3E
:1025900014C080917A0490917B04009711F00E94FE
:1025A000091910927B0410927A0410927F04109201
:1025B0007E0410927D0410927C040E94451625E052
:1025C00030E040E050E00E9498176F5F7F4F8F4FE0
:1025D0009F4F7093790460937804CF911F910F916E
:1025E0000895CF93DF9300D01F92CDB7DEB77894D4
:1025F00084B5826084BD84B5816084BD85B5826008
:1026000085BD85B5816085BD80916E0081608093B8
:102610006E00109281008091810082608093810021
:102620008091810081608093810080918000816031
:10263000809380008091B10084608093B10080918C
:10264000B00081608093B00080919100826080939F
:102650009100809191008160809391008091900021
:102660008160809390008091A10082608093A1009E
:102670008091A10081608093A1008091A000816081
:102680008093A0008091210182608093210180913C
:1026900021018160809321018091200181608093DC
:1026A000200180917A00846080937A0080917A0082
:1026B000826080937A0080917A00816080937A00B2
:1026C00080917A00806880937A001092C1008AED30
:1026D00093E00E940F048DE393E00E940F0460E0FA
:1026E00082E00E94660660E083E00E94660660E089
:1026F00084E00E94660660E085E00E94660667E06E
:102700008AE00E942E06E091A004F091A1041282BA
:10271000E091A004F091A10481E08283E091A20401
:10272000F091A30482E08083E091A204F091A304DD
:10273000818392E0D92E25E0222E312C412C512C80
:1027400036E0B32E8091060290910702009731F097
:10275000019709F48BC10E944305F4CFE091A004D6
:10276000F091A1041282E091A004F091A10421E073
:102770002283E091A204F091A304D082E091A2040C
:10278000F091A304D1824091020250910302609122
:1027900000027091010221E030E080E894E00E94A4
:1027A000EF060E945C0640913A0350913B03609112
:1027B00078047091790421E030E080E894E00E9490
:1027C000EF060E945C0682E00E94D7052091040279
:1027D000309105023A832983019709F0DCC0121673
:1027E00013068CF5B901615071097093050260936D
:1027F000040221E030E04FE050E080E894E00E94E5
:10280000EF0621E030E04FE050E069817A8180E816
:1028100094E00E94EF0621E030E04EE050E0698154
:102820007A8180E894E00E94EF0669817A816F5F87
:102830007F4F21E030E04FE050E080E894E00E94DC
:10284000EF060E945C0684E00E94D7050197D1F450
:1028500060910402709105026F5F7F4F70930102D7
:10286000609300028EE090E0909303028093020256
:1028700021E030E04EE050E080E894E00E94EF0676
:102880000E945C060E940F0EBC01990F880B990BE9
:102890000E94BC06609100027091010265577D4F55
:1028A0008AED93E00E94F60D60910202709103029E
:1028B00067567D4F8AED93E00E94F60D6091780493
:1028C0007091790469557D4F8AED93E00E94F60D71
:1028D00060913A0370913B036D547D4F8AED93E014
:1028E0000E94F60D609100027091010240917804FF
:1028F00050917904209102023091030280913A03B1
:1029000090913B036417750719F42817390751F0A4
:10291000A901415051094817590721F0019628177C
:10292000390701F524E130E03093010220930002E1
:102930000E944516A20191010E9498176F5F7F4F78
:102940008F4F9F4F709379046093780484E190E0F7
:1029500090930302809302022FEF3FEF30933B03EB
:1029600020933A0380913A0390913B038F30910575
:1029700009F06DC081E090E0909307028093060219
:1029800070E060E080E894E00E948D0E0E945C069A
:102990000E940F0EE0CE83E00E94D705019789F5D3
:1029A00089819A81853091050CF04DCFBC016F5F14
:1029B0007F4F709305026093040221E030E04FE006
:1029C00050E080E894E00E94EF0689809A8092E0CF
:1029D000890E911C21E030E04FE050E0B40180E826
:1029E00094E00E94EF0621E030E04EE050E0B401B8
:1029F00080E894E00E94EF0669817A816D5F7F4FE5
:102A000018CF21E030E04FE050E069817A8180E822
:102A100094E00E94EF0689809A802FEF821A920A32
:102A200021E030E04FE050E0B40180E894E00E9403
:102A3000EF0621E030E04EE050E0B40180E894E0A1
:102A40000E94EF0669817A816E5F7F4FF2CE019618
:102A500090933B0380933A0380910202909103028A
:102A6000019790930302809302028ACF712C612C0C
:102A700020918804309189043A83298320917E042F
:102A800030917F04B29EC001B39E900D1124298124
:102A90003A81820F931F02976816790608F067C083
:102AA000C30166E070E00E943D184B0121503109DE
:102AB000281B390B3C832B8320918A0430918B0493
:102AC000C901089797FD01969C01359527953A8392
:102AD00029838B819C818B3F9F4F9CF13FEF831615
:102AE000930679F180917E0490917F04881699066F
:102AF000D8F4E0917A04F0917B043097F9F41092C5
:102B00003C03ECE3F3E0AA24A394CC24C394F12C7B
:102B1000E12C01E010E0208149815A816B817C81A8
:102B200080E894E00E94040881E0881A91082B81D3
:102B30003C81265031093C832B83CBCFE80DF91D16
:102B4000E2CF0E945C060E940F0EBC01990F880B19
:102B5000990B0E94BC0670E060E080E894E00E945F
:102B60008D0E0E940F0E3FEF631A730A81CF1092F1
:102B700007021092060280910402909105029A8346
:102B8000898321E030E04FE050E0BC0180E894E030
:102B90000E94EF0689809A809FEF891A990A21E0A6
:102BA00030E04FE050E0B40180E894E00E94EF068E
:102BB00021E030E04EE050E0B40180E894E00E9473
:102BC000EF0669817A816E5F7F4F21E030E04FE050
:102BD00050E080E894E00E94EF060E945C06BBCDC6
:102BE00080917A0490917B04009711F00C9409195C
:102BF00008958F929F92AF92BF92CF92DF92EF9201
:102C0000FF92CF93DF93EC01688179818A819B8168
:102C1000611571058105910521F464E279ED8BE57B
:102C200097E02DE133EF41E050E00E949817490111
:102C30005A019B01AC01A7EAB1E40E94B7176B01EE
:102C40007C01ACEEB4EFA50194010E94C517C60E3D
:102C5000D71EE81EF91EF7FE06C081E0C81AD1088B
:102C6000E10880E8F80AC882D982EA82FB82C701BB
:102C7000B6019F77DF91CF91FF90EF90DF90CF90DB
:102C8000BF90AF909F908F9008958F929F92AF9238
:102C9000BF92CF92DF92EF92FF9260910802709103
:102CA000090280910A0290910B026115710581055C
:102CB000910521F464E279ED8BE597E02DE133EFA6
:102CC00041E050E00E94981749015A019B01AC0174
:102CD000A7EAB1E40E94B7176B017C01ACEEB4EF38
:102CE000A50194010E94C517C60ED71EE81EF91E45
:102CF000F7FE06C081E0C81AD108E10880E8F80AAA
:102D0000C0920802D0920902E0920A02F0920B02ED
:102D1000C701B6019F77FF90EF90DF90CF90BF90F3
:102D2000AF909F908F90089560930802709309026E
:102D300080930A0290930B020895E89409C097FBD0
:102D40003EF490958095709561957F4F8F4F9F4F82
:102D50009923A9F0F92F96E9BB279395F6958795C6
:102D600077956795B795F111F8CFFAF4BB0F11F489
:102D700060FF1BC06F5F7F4F8F4F9F4F16C0882330
:102D800011F096E911C0772321F09EE8872F762F66
:102D900005C0662371F096E8862F70E060E02AF0A7
:102DA0009A95660F771F881FDAF7880F9695879593
:102DB00097F908950E94ED160C945E170E94501723
:102DC00038F00E94571720F0952311F00C94471704
:102DD0000C944D1711240C9492170E946F1770F3E6
:102DE000959FC1F3950F50E0551F629FF001729FB0
:102DF000BB27F00DB11D639FAA27F00DB11DAA1FBF
:102E0000649F6627B00DA11D661F829F2227B00D0B
:102E1000A11D621F739FB00DA11D621F839FA00D96
:102E2000611D221F749F3327A00D611D231F849FE6
:102E3000600D211D822F762F6A2F11249F5750403D
:102E40009AF0F1F088234AF0EE0FFF1FBB1F661FB8
:102E5000771F881F91505040A9F79E3F510580F081
:102E60000C9447170C9492175F3FE4F3983ED4F309
:102E7000869577956795B795F795E7959F5FC1F725
:102E8000FE2B880F911D9695879597F9089597F9D0
:102E90009F6780E870E060E008959FEF80EC089500
:102EA00000240A9416161706180609060895002429
:102EB0000A9412161306140605060895092E0394A3
:102EC000000C11F4882352F0BB0F40F4BF2B11F417
:102ED00060FF04C06F5F7F4F8F4F9F4F089557FD76
:102EE0009058440F551F59F05F3F71F04795880F78
:102EF00097FB991F61F09F3F79F08795089512160F
:102F000013061406551FF2CF4695F1DF08C01616BA
:102F100017061806991FF1CF86957105610508946B
:102F20000895E894BB2766277727CB0197F9089582
:102F3000052E97FB1EF400940E94AF1757FD07D093
:102F40000E94CA1707FC03D04EF40C94AF1750959B
:102F50004095309521953F4F4F4F5F4F0895909585
:102F60008095709561957F4F8F4F9F4F08950E9478
:102F7000EC17A59F900DB49F900DA49F800D911DFF
:102F800011240895B7FF0C94B7170E94B717821B3E
:102F9000930B0895A1E21A2EAA1BBB1BFD010DC0C5
:102FA000AA1FBB1FEE1FFF1FA217B307E407F507F9
:102FB00020F0A21BB30BE40BF50B661F771F881FD5
:102FC000991F1A9469F760957095809590959B016B
:102FD000AC01BD01CF010895A29FB001B39FC00114
:102FE000A39F700D811D1124911DB29F700D811D35
:102FF0001124911D08950E9402186894B1110C9437
:10300000921708950E94771788F09F5798F0B92F6C
:103010009927B751B0F0E1F0660F771F881F991F0D
:103020001AF0BA95C9F714C0B13091F00E94911707
:10303000B1E008950C949117672F782F8827B85F17
:1030400039F0B93FCCF3869577956795B395D9F765
:103050003EF490958095709561957F4F8F4F9F4F6F
:103060000895991B79E004C0991F961708F0961BE4
:10307000881F7A95C9F78095089597FB072E16F457
:10308000009407D077FD09D00E94591807FC05D09D
:103090003EF4909581959F4F0895709561957F4F6F
:1030A0000895EE0FFF1F881F8BBF0790F691E02D4C
:1030B0001994AA1BBB1B51E107C0AA1FBB1FA6176F
:1030C000B70710F0A61BB70B881F991F5A95A9F7D1
:1030D00080959095BC01CD0108950F931F93CF93D8
:1030E000DF938230910510F482E090E0E091B40427
:1030F000F091B50430E020E0B0E0A0E0309799F422
:103100002115310509F44AC0281B390B243031053B
:10311000D8F58A819B816115710589F1FB01938343
:103120008283FE0111C040815181028113814817C1
:103130005907E0F04817590799F4109761F0129673
:103140000C93129713961C933296CF01DF91CF9177
:103150001F910F9108950093B4041093B504F4CF18
:103160002115310551F04217530738F0A901DB0151
:103170009A01BD01DF01F801C1CFEF01F9CF9093B2
:10318000B5048093B404CDCFFE01E20FF31F819309
:1031900091932250310939832883D7CF2091B204EB
:1031A0003091B304232B41F420910E0230910F0291
:1031B0003093B3042093B20420910C0230910D029D
:1031C0002115310541F42DB73EB7409110025091C1
:1031D0001102241B350BE091B204F091B304E21705
:1031E000F307A0F42E1B3F0B2817390778F0AC012A
:1031F0004E5F5F4F2417350748F04E0F5F1F509307
:10320000B3044093B204819391939FCFF0E0E0E048
:103210009CCFCF93DF930097E9F0FC0132971382A4
:103220001282A091B404B091B504ED0130E020E029
:103230001097A1F420813181820F931F2091B20455
:103240003091B3042817390709F061C0F093B30433
:10325000E093B204DF91CF910895EA01CE17DF0722
:10326000E8F54A815B819E0141155105B1F7E901FD
:10327000FB83EA8349915991C40FD51FEC17FD07D1
:1032800061F4808191810296840F951FE9019983F1
:103290008883828193819B838A83F0E0E0E01296A9
:1032A0008D919C9113970097B9F52D913C911197B1
:1032B000CD010296820F931F2091B2043091B30486
:1032C0002817390739F6309751F51092B504109246
:1032D000B404B093B304A093B204BCCFD383C2832D
:1032E00040815181840F951FC817D90761F44E5F43
:1032F0005F4F88819981480F591F518340838A818C
:103300009B81938382832115310509F0B0CFF0931F
:10331000B504E093B4049ECFFD01DC01C0CF13825D
:103320001282D7CF4F925F926F927F928F929F922D
:10333000AF92BF92CF92DF92EF92FF920F931F93C3
:10334000CF93DF938C01009799F4CB01DF91CF915C
:103350001F910F91FF90EF90DF90CF90BF90AF90B3
:103360009F908F907F906F905F904F900C946D180E
:10337000FC01E60FF71F9C0122503109E217F30709
:1033800008F4AEC0D901CD91DC911197C617D707CB
:1033900020F1C530D10578F0CE0104978617970744
:1033A00050F0C61BD70B2297C193D1936D937C939A
:1033B000CF010E940919C801DF91CF911F910F9190
:1033C000FF90EF90DF90CF90BF90AF909F908F9045
:1033D0007F906F905F904F9008955B01AC1ABD0A8B
:1033E0004C018C0E9D1EA091B404B091B504512CDB
:1033F000412CF12CE12C109731F58091B204909181
:10340000B3048815990509F05CC04616570608F004
:1034100058C080910C0290910D02009741F48DB735
:103420009EB74091100250911102841B950BE81732
:10343000F90708F055C0F093B304E093B204F90122
:1034400071836083B8CF8D919C91119712966C9087
:10345000129713967C901397A815B90559F56C012E
:1034600042E0C40ED11CCA14DB0420F1AC014A199D
:103470005B09DA011296159780F06282738251839C
:103480004083D9016D937C93E114F10471F0D7016D
:103490001396FC93EE9312978ECF22968C0F9D1F5E
:1034A000F90191838083F301EFCFF093B504E093AA
:1034B000B40481CF4816590608F42C017D01D301CC
:1034C0009ACFCB010E946D187C01009749F0AE01A4
:1034D000B8010E94781AC8010E94091987016BCFB0
:1034E00010E000E068CF81E090E0F8940C948F1A2F
:1034F000FB01DC0102C001900D9241505040D8F711
:103500000895DC0101C06D9341505040E0F70895EB
:10351000FB01DC0101900D920020E1F7089513E01A
:10352000CBEDD3E000E006C0802FFE010E945118D1
:103530002196011DCC3DD10780E00807A9F7F8943A
:10354000FFCF140014000200010001000000000081
:10355000B604800000000000D6043604630423058E
:1035600094047204860400000000290A3604820DC7
:10357000810DEF06C207CE0CA60CC20CB60CD50C02
:10358000C2070208EC076D0C340CEF0B8D0E5A0BC2
:10359000FB0A0D0A0056616C6F7220706F74656EC5
:1035A00063696F6D6574726F3A200056656C6F6366
:1035B000696461642041637475616C3A2000206D18
:1035C0007300202A47414C4147412A20005820508F
:1035D000726F79656374696C3A2000592050726F7C
:1035E00079656374696C3A20005820456E656D6991
:1035F000676F3A20005920456E656D69676F3A2004
:023600000000C8
:020000040003F7
:10E000000D9489F10D94B2F10D94B2F10D94B2F129
:10E010000D94B2F10D94B2F10D94B2F10D94B2F1F0
:10E020000D94B2F10D94B2F10D94B2F10D94B2F1E0
:10E030000D94B2F10D94B2F10D94B2F10D94B2F1D0
:10E040000D94B2F10D94B2F10D94B2F10D94B2F1C0
:10E050000D94B2F10D94B2F10D94B2F10D94B2F1B0
:10E060000D94B2F10D94B2F10D94B2F10D94B2F1A0
:10E070000D94B2F10D94B2F10D94B2F10D94B2F190
:10E080000D94B2F10D94B2F10D94B2F10D94B2F180
:10E090000D94B2F10D94B2F10D94B2F10D94B2F170
:10E0A0000D94B2F10D94B2F10D94B2F10D94B2F160
:10E0B0000D94B2F10D94B2F10D94B2F10D94B2F150
:10E0C0000D94B2F10D94B2F10D94B2F10D94B2F140
:10E0D0000D94B2F10D94B2F10D94B2F10D94B2F130
:10E0E0000D94B2F141546D656761323536300041AF
:10E0F000726475696E6F206578706C6F72657220DE
:10E1000073746B3530305632206279204D4C530099
:10E11000426F6F746C6F616465723E004875683F52
:10E1200000436F6D70696C6564206F6E203D200048
:10E130004350552054797065202020203D20005FF9
:10E140005F4156525F415243485F5F3D2000415658
:10E1500052204C696243205665723D20004743437C
:10E160002056657273696F6E203D20004350552024
:10E1700049442020202020203D20004C6F7720663D
:10E18000757365202020203D20004869676820665F
:10E190007573652020203D200045787420667573D6
:10E1A00065202020203D20004C6F636B2066757336
:10E1B000652020203D20004D617220203720323024
:10E1C000313300312E362E3800342E332E350056A2
:10E1D00023202020414444522020206F7020636F70
:10E1E00064652020202020696E73747275637469E1
:10E1F0006F6E2061646472202020496E74657272B3
:10E20000757074006E6F20766563746F7200726A49
:10E210006D702020006A6D70200057686174207056
:10E220006F72743A00506F7274206E6F7420737541
:10E2300070706F72746564004D7573742062652030
:10E2400061206C6574746572002000577269747483
:10E25000696E672045450052656164696E672045B7
:10E26000450045452065727220636E743D00504F35
:10E27000525400303D5A65726F2061646472003FF1
:10E280003D43505520737461747300403D454550C3
:10E29000524F4D207465737400423D426C696E6B41
:10E2A000204C454400453D44756D70204545505215
:10E2B0004F4D00463D44756D7020464C415348001B
:10E2C000483D48656C70004C3D4C69737420492F83
:10E2D0004F20506F72747300513D51756974005234
:10E2E0003D44756D702052414D00563D73686F7707
:10E2F00020696E7465727275707420566563746FF0
:10E30000727300593D506F727420626C696E6B00BD
:10E310002A0011241FBECFEFD1E2DEBFCDBF01E046
:10E320000CBF12E0A0E0B2E0EEE1FDEF03E00BBFB6
:10E3300002C007900D92A030B107D9F712E0A0E01B
:10E34000B2E001C01D92AE30B107E1F70F9460F367
:10E350000D948DFE01E20EBF0FEF0DBF11241FBE05
:10E360000D9460F30D9400F020E030E040ED57E0B4
:10E3700005C0FA013197F1F72F5F3F4F2817390792
:10E38000C0F308959C01260F311DC901A0E0B0E043
:10E390002F5F3F4FABBFFC018791882361F08093D3
:10E3A000C6008091C00086FFFCCF8091C0008064D1
:10E3B0008093C000EACF08958DE08093C6008091DD
:10E3C000C00086FFFCCF8091C00080648093C000B5
:10E3D0008AE08093C6008091C00086FFFCCF8091C8
:10E3E000C00080648093C00008950F94C2F10F9420
:10E3F000DCF10895FC019081992359F09093C600B7
:10E400008091C00086FFFCCF8091C0008064809323
:10E41000C0003196992379F70895282F982F929567
:10E420009F70892F805D8A3308F0895F8093C600D2
:10E430008091C00086FFFCCF8091C00080648093F3
:10E44000C000822F8F70982F905D9A3308F0995FEB
:10E450009093C6008091C00086FFFCCF8091C000E1
:10E4600080648093C00008959C01FB01853691056E
:10E470001CF46330710594F0C90164E670E00F94F8
:10E480002EFE605D7F4F6093C6008091C00086FFC6
:10E49000FCCF8091C00080648093C0002B30310598
:10E4A00014F43297B4F0C90164E670E00F942EFEC4
:10E4B0006AE070E00F942EFE605D7F4F6093C600AF
:10E4C0008091C00086FFFCCF8091C0008064809363
:10E4D000C000C9016AE070E00F942EFEC0968093E0
:10E4E000C6008091C00086FFFCCF8091C000806490
:10E4F0008093C00008951F93182F8EE692EE60E07F
:10E500000F94C2F11093C6008091C00086FFFCCF2B
:10E510008091C00080648093C0000F94DCF11F9153
:10E5200008952F923F924F925F926F927F928F92B7
:10E530009F92AF92BF92CF92DF92EF92FF920F9392
:10E540001F93DF93CF93CDB7DEB762970FB6F894E2
:10E55000DEBF0FBECDBF382E622ECA01DB015C01CB
:10E560006D01772420E2222E2E010894411C511CBB
:10E570008BC081E0A81680E0B80681E0C80680E084
:10E58000D80628F0C601AA27BB270F940DF2BB2797
:10E59000AD2D9C2D8B2D0F940DF28A2D0F940DF225
:10E5A0002092C6008091C00086FFFCCF8091C00001
:10E5B00080648093C0009DE29093C6008091C0006B
:10E5C00086FFFCCF8091C00080648093C0002092C1
:10E5D000C6008091C00086FFFCCF8091C00080649F
:10E5E0008093C00019828601750188249924A1E0D6
:10E5F0003A1651F03A1620F0B2E03B1661F409C029
:10E600000BBFF701779007C0C7010F9477FE782EF4
:10E6100002C0F7017080872D0F940DF22092C60082
:10E620008091C00086FFFCCF8091C0008064809301
:10E63000C000872D8052F401EF70F0708F3520F408
:10E64000E40DF51D708204C0E40DF51D8EE280839B
:10E650000894E11CF11C011D111D0894811C911CE2
:10E6600090E18916910409F0C2CF80E190E0A0E02A
:10E67000B0E0A80EB91ECA1EDB1E198AC2010F9493
:10E68000FAF10F94DCF16A94662009F072CF629679
:10E690000FB6F894DEBF0FBECDBFCF91DF911F91B3
:10E6A0000F91FF90EF90DF90CF90BF90AF909F9031
:10E6B0008F907F906F905F904F903F902F90089534
:10E6C0002F923F924F925F926F927F928F929F9282
:10E6D000AF92BF92CF92DF92EF92FF920F931F9370
:10E6E000DF93CF93CDB7DEB7CD53D1400FB6F894BB
:10E6F000DEBF0FBECDBF01E20EBF0FEF0DBF94B75F
:10E70000F894A89514BE80916000886180936000A1
:10E7100010926000789493FF05C0E0910002F091A0
:10E7200001021995279A2F9A8091C00082608093E8
:10E73000C00080E18093C40088E18093C1000000A4
:10E74000EE24FF24870144E0A42EB12CCC24DD2448
:10E7500024C0C5010197F1F70894E11CF11C011DCB
:10E76000111D21E2E2162EE4F20620E0020720E06D
:10E77000120718F031E0C32ED12CC801B70127ECE5
:10E780003BE140E050E00F9441FE611571058105C9
:10E79000910519F485B1805885B98091C00087FD35
:10E7A00003C0C114D104A9F2A6014F5F5F4FC25E3E
:10E7B000DE4F59834883CE51D140C25EDE4F8881FF
:10E7C0009981CE51D140019711F00D9410FEC05D9A
:10E7D000DE4F19821882C053D14060E0C15DDE4F28
:10E7E0001882CF52D14088249924C35DDE4F19820C
:10E7F0001882CD52D140C05EDE4F188219821A8233
:10E800001B82C052D140CE5CDE4F188219821A8220
:10E810001B82C253D140EE24FF2487010BBFF701B6
:10E8200007911691C45CDE4F19830883CC53D14005
:10E830000D940BFEC25EDE4F28813981CE51D1404E
:10E840002130310509F52091C600C25EDE4F1982E4
:10E850001882CE51D14022C02F5F3F4F4F4F5F4FA4
:10E86000213082E138078AE7480780E0580780F0C6
:10E87000C45CDE4FE881F981CC53D140EF5FFF4F9C
:10E8800019F0EE27FF27099420E030E040E050E047
:10E890008091C00087FFE0CF2091C600C35DDE4FAE
:10E8A00048815981CD52D1404F5F5F4FC35DDE4FEC
:10E8B00059834883CD52D140213209F063C64A3092
:10E8C000510508F05FC60894811C911C53E0851621
:10E8D000910409F059C600E010E018C081E280936D
:10E8E000C6008091C00086FFFCCF8091C00080648C
:10E8F0008093C0002F5F3F4F2931310579F70F9486
:10E90000DCF10F5F1F4F0530110519F020E030E0FA
:10E91000E5CF10920A0210920B0210920C02109294
:10E920000D02109206021092070210920802109235
:10E930000902109202021092030210920402109235
:10E9400005028FEE90EE60E00F94F5F180E191EE1C
:10E9500060E00F94C2F18091C00087FFFCCF9091DE
:10E96000C600903608F09F759032B8F09093C600BC
:10E970008091C00086FFFCCF8091C00080648093AE
:10E98000C000A0E2A093C6008091C00086FFFCCF2B
:10E990008091C00080648093C000983409F4D7C18E
:10E9A0009934B8F4923409F459C1933458F490333B
:10E9B00019F1903308F4E3C59F33A1F1903409F0C5
:10E9C000DEC5BDC0953409F470C1963409F0D7C5D1
:10E9D00098C1923509F42BC2933538F49C3409F46C
:10E9E000F5C1913509F0CBC518C2963509F445C279
:10E9F000993509F0C4C567C483E792EE62E00F94CD
:10EA0000F5F110920602109207021092080210927D
:10EA1000090210920A0210920B0210920C0210923C
:10EA20000D0213C18FE792EE62E00F94F5F18FEEC5
:10EA300090EE60E00F94F5F181E291EE60E00F94CA
:10EA4000C2F187EB91EE60E00F94F5F180E391EE77
:10EA500060E00F94C2F184EE90EE60E00F94F5F167
:10EA60008FE391EE60E00F94C2F186E090E061E008
:10EA700070E00F9434F20F94DCF18DE591EE60E0DC
:10EA80000F94C2F189EC91EE60E00F94F5F18EE401
:10EA900091EE60E00F94C2F183EC91EE60E00F9490
:10EAA000F5F18CE691EE60E00F94C2F18EE10F94E7
:10EAB0000DF288E90F940DF281E00F940DF20F949E
:10EAC000DCF18BE791EE60E00F94C2F119E0E0E039
:10EAD000F0E010935700E4918E2F0F940DF20F94F5
:10EAE000DCF18AE891EE60E00F94C2F1E3E0F0E03F
:10EAF00010935700E4918E2F0F940DF20F94DCF1D8
:10EB000089E991EE60E00F94C2F1E2E0F0E0109349
:10EB10005700E4918E2F0F940DF20F94DCF188EAE8
:10EB200091EE60E00F94C2F1E1E0F0E01093570045
:10EB30001491812F0F940DF20F94DCF107CF8BE825
:10EB400092EE62E00F94F5F18BE492EE60E00F94A8
:10EB5000F5F10F94DCF100E010E019C0C8016F2D51
:10EB60000F947FFEFF2031F489E492EE60E00F9471
:10EB7000C2F10BC0F092C6008091C00086FFFCCFAE
:10EB80008091C00080648093C0000F5F1F4FC80158
:10EB900081519F41A0E0B0E0ABBFFC01F790BAE229
:10EBA000FB1621F0E2E000301E07C1F60F94DCF105
:10EBB0000F94DCF187E592EE60E00F94F5F10F948D
:10EBC000DCF1CC24DD2400E010E01EC0C8010F946D
:10EBD00077FEF82E882331F489E492EE60E00F94FA
:10EBE000C2F10BC08093C6008091C00086FFFCCFAD
:10EBF0008091C00080648093C000FE1419F00894D6
:10EC0000C11CD11C0F5F1F4FC80181519F41A0E063
:10EC1000B0E0ABBFFC01E790FAE2EF1621F022E092
:10EC20000030120799F60F94DCF10F94DCF182E6C4
:10EC300092EE60E00F94C2F1C60161E070E00F94C3
:10EC400034F20F94DCF10F94DCF110920202109276
:10EC50000302109204021092050278CE89E992EE26
:10EC600062E00F94F5F1279A2F9A16C02F9880E052
:10EC700090E0E0EDF7E03197F1F7019684369105E9
:10EC8000C1F72F9A80E090E0E0EDF7E03197F1F7DF
:10EC9000019684369105C1F78091C00087FFE6CFC9
:10ECA0008091C00087FFFCCF64C485EA92EE62E0E9
:10ECB0000F94F5F140910202509103026091040219
:10ECC0007091050281E020E10F9491F2809102029F
:10ECD00090910302A0910402B091050280509F4FD1
:10ECE000AF4FBF4F8093020290930302A0930402A0
:10ECF000B093050280509041A040B04008F426CE69
:10ED0000A4CF83EB92EE62E00F94F5F140910602FE
:10ED100050910702609108027091090280E020E1A1
:10ED20000F9491F28091060290910702A09108023F
:10ED3000B091090280509F4FAF4FBF4F80930602A2
:10ED400090930702A0930802B0930902FFCD80ECD4
:10ED500092EE62E00F94F5F183E792EE60E00F949B
:10ED6000F5F18FE792EE60E00F94F5F18BE892EE0B
:10ED700060E00F94F5F189E992EE60E00F94F5F10F
:10ED800085EA92EE60E00F94F5F183EB92EE60E09D
:10ED90000F94F5F180EC92EE60E00F94F5F187ECC2
:10EDA00092EE60E00F94F5F188ED92EE60E00F9442
:10EDB000F5F18FED92EE60E00F94F5F18AEE92EEB0
:10EDC00060E00F94F5F183E093EEBDCD87EC92EE19
:10EDD00062E00F94F5F181E40F947BF282E40F94EA
:10EDE0007BF283E40F947BF284E40F947BF285E45E
:10EDF0000F947BF286E40F947BF287E40F947BF20E
:10EE000088E40F947BF28AE40F947BF28BE40F94F6
:10EE10007BF28CE40F947BF299CD88ED92EE62E068
:10EE20000F94F5F1772473948824992409C48FED05
:10EE300092EE62E00F94F5F140910A0250910B02BC
:10EE400060910C0270910D0282E020E10F9491F22A
:10EE500080910A0290910B02A0910C02B0910D02D8
:10EE600080509F4FAF4FBF4F80930A0290930B0289
:10EE7000A0930C02B0930D0269CD8AEE92EE62E08F
:10EE80000F94F5F184EE90EE60E00F94F5F18FECC5
:10EE900091EE60E00F94F5F1662477244301CC5D98
:10EEA000DE4F19821882C452D140D401C301B695F5
:10EEB000A79597958795CA5DDE4F88839983AA8326
:10EEC000BB83C652D140CC5DDE4FA881B981C4520C
:10EED000D1401196CC5DDE4FB983A883C452D14096
:10EEE000CD0162E070E00F9434F2B0E2B093C6005E
:10EEF0008091C00086FFFCCF8091C0008064809329
:10EF0000C000EDE2E093C6008091C00086FFFCCF18
:10EF10008091C00080648093C000F0E2F093C6004E
:10EF20008091C00086FFFCCF8091C00080648093F8
:10EF3000C000CA5DDE4FE880F9800A811B81C6529D
:10EF4000D140BB27A12F902F8F2D0F940DF2CA5DBA
:10EF5000DE4F8881C652D1400F940DF2B0E2FB2EF5
:10EF6000F092C6008091C00086FFFCCF8091C00067
:10EF700080648093C0000DE30093C6008091C000C0
:10EF800086FFFCCF8091C00080648093C00010E2B7
:10EF90001093C6008091C00086FFFCCF8091C00016
:10EFA00080648093C0008BBEF3012791C65DDE4F65
:10EFB0002883CA52D140A22EBB24CC24DD2408943D
:10EFC000611C711C811C911C8BBEF3018791282E42
:10EFD0003324442455240894611C711C811C911C09
:10EFE0008BBEF3013791C55DDE4F3883CB52D140E4
:10EFF0000894611C711C811C911C8BBEF30147910C
:10F00000C45DDE4F4883CC52D140ADEFEA2EAFEF66
:10F01000FA2EAFEF0A2FAFEF1A2F6E0C7F1C801E57
:10F02000911E142D032DF22CEE24EA0CFB1C0C1D5A
:10F030001D1D0F940DF220E22093C6008091C000A8
:10F0400086FFFCCF8091C00080648093C000C65DC5
:10F05000DE4F8881CA52D1400F940DF230E23093D6
:10F06000C6008091C00086FFFCCF8091C000806404
:10F070008093C000C45DDE4F8881CC52D1400F9494
:10F080000DF240E24093C6008091C00086FFFCCFA5
:10F090008091C00080648093C000C55DDE4F888190
:10F0A000CB52D1400F940DF250E25093C6008091A4
:10F0B000C00086FFFCCF8091C00080648093C000B8
:10F0C0008FEFE8168FEFF80680E0080780E018075A
:10F0D00031F484E092EE60E00F94C2F1DFC0D80119
:10F0E000C7018070907CA070B0708050904CA040A0
:10F0F000B040D1F52FEF3FE340E050E0E222F322B1
:10F1000004231523CA5DDE4FA880B980CA80DB8046
:10F11000C652D140AE0CBF1CC01ED11EAA0CBB1CD7
:10F12000CC1CDD1C8EE092EE60E00F94C2F1BB2798
:10F13000A12F902F8F2D0F940DF28E2D0F940DF285
:10F1400030E23093C6008091C00086FFFCCF8091F2
:10F15000C00080648093C0004EE34093C60080915D
:10F16000C00086FFFCCF87C08EE09EEFA0E0B0E03D
:10F17000E822F9220A231B239CE0E91694E9F90608
:10F1800090E0090790E0190709F088C0C45DDE4FE0
:10F19000A881CC52D140EA2EFF2400E010E0102FCD
:10F1A0000F2DFE2CEE24C55DDE4FB881CB52D14031
:10F1B000EB0EF11C011D111DD601C501817090706F
:10F1C000A070B070DC0199278827E80EF91E0A1F8D
:10F1D0001B1F20EF30E040E050E0A222B322C42207
:10F1E000D52241E1AA0CBB1CCC1CDD1C4A95D1F7F1
:10F1F000EA0CFB1C0C1D1D1D81E090E0A0E0B0E0BE
:10F20000282239224A225B2235E1220C331C441C7D
:10F21000551C3A95D1F7E20CF31C041D151D57013E
:10F220006801AA0CBB1CCC1CDD1C85E192EE60E0E1
:10F230000F94C2F1C801AA27BB270F940DF2BB2778
:10F24000A12F902F8F2D0F940DF28E2D0F940DF274
:10F2500090E29093C6008091C00086FFFCCF809121
:10F26000C00080648093C000AEE3A093C60080918C
:10F27000C00086FFFCCF8091C00080648093C000F6
:10F28000C601AA27BB270F940DF2BB27AD2D9C2DDD
:10F290008B2D0F940DF28A2D0F940DF20F94DCF14B
:10F2A000CC5DDE4FE881F981C452D140F99709F471
:10F2B0004DCBF4E0EF2EF12C012D112D6E0C7F1CA7
:10F2C000801E911EF2CD83E093EE62E00F94F5F183
:10F2D0008AE192EE60E00F94C2F18091C00087FF56
:10F2E000FCCF1091C6001F751093C6008091C0001E
:10F2F00086FFFCCF8091C00080648093C0000F9493
:10F30000DCF1812F81548A3108F036C1163409F4BA
:10F3100095C0173490F4133409F44EC0143430F40B
:10F320001134F1F0123409F01DC130C0143409F465
:10F3300059C0153409F016C16BC01A3409F4C4C0A1
:10F340001B3438F4173409F48FC0183409F00AC19B
:10F35000A1C01B3409F4D2C01C3409F003C1E8C0B9
:10F360008FEF81B90DC082B1809582B980E090E0C5
:10F37000E0EDF7E03197F1F70196883C9105C1F790
:10F380008091C00087FFEFCF12B8EFC08FEF84B934
:10F390000DC085B1809585B980E090E0E0EDF7E0A3
:10F3A0003197F1F70196883C9105C1F78091C00033
:10F3B00087FFEFCF15B8D9C08FEF87B90DC088B1DF
:10F3C000809588B980E090E0E0EDF7E03197F1F7C3
:10F3D0000196883C9105C1F78091C00087FFEFCF6F
:10F3E00018B8C3C08FEF8AB90DC08BB180958BB9A7
:10F3F00080E090E0E0EDF7E03197F1F70196883C8E
:10F400009105C1F78091C00087FFEFCF1BB8ADC059
:10F410008FEF8DB90DC08EB180958EB980E090E0F0
:10F42000E0EDF7E03197F1F70196883C9105C1F7DF
:10F430008091C00087FFEFCF1EB897C08FEF80BBD1
:10F440000DC081B3809581BB80E090E0E0EDF7E0F6
:10F450003197F1F70196883C9105C1F78091C00082
:10F4600087FFEFCF11BA81C08FEF83BB0DC084B38C
:10F47000809584BB80E090E0E0EDF7E03197F1F714
:10F480000196883C9105C1F78091C00087FFEFCFBE
:10F4900014BA6BC08FEF809301010FC080910201FD
:10F4A00080958093020180E090E0E0EDF7E03197F5
:10F4B000F1F70196883C9105C1F78091C00087FF64
:10F4C000EDCF1092020151C08FEF809304010FC065
:10F4D0008091050180958093050180E090E0E0ED4A
:10F4E000F7E03197F1F70196883C9105C1F78091DB
:10F4F000C00087FFEDCF1092050137C08FEF8093DA
:10F5000007010FC08091080180958093080180E079
:10F5100090E0E0EDF7E03197F1F70196883C910536
:10F52000C1F78091C00087FFEDCF109208011DC088
:10F530008FEF80930A010FC080910B01809580931B
:10F540000B0180E090E0E0EDF7E03197F1F70196F4
:10F55000883C9105C1F78091C00087FFEDCF1092E4
:10F560000B0103C085E292EEEEC98091C00087FFD7
:10F57000FCCF8091C600EAC988E392EEE4C98CE131
:10F5800091EEE1C988249924933011F1943028F444
:10F59000913089F09230B8F408C0953061F195301F
:10F5A000F0F0963009F048C043C02B3109F042C951
:10F5B00091E06BE13FC96227C15DDE4F2883CF52E6
:10F5C000D14092E037C9B22FA0E0622793E032C960
:10F5D000822F90E0A82BB92B622794E02BC92E3004
:10F5E00009F039C3622795E0C05DDE4F19821882A9
:10F5F000C053D1401FC9E1E0F0E0EC0FFD1FC05D3A
:10F60000DE4F08811981C053D140E00FF11F2083E4
:10F610000F5F1F4FC05DDE4F19830883C053D14079
:10F6200062270A171B0709F005C9D80196E002C92D
:10F63000261709F010C303C0973009F0FBC87724E0
:10F640009981933109F412C19431C8F4963009F4C8
:10F65000D8C0973050F4923009F406C1933009F4C1
:10F660006DC0913009F059C253C0913109F477C08F
:10F67000923108F0BBC0903109F04FC2F5C098310B
:10F6800009F487C0993150F4953109F4EFC09531F0
:10F6900008F4C6C1963109F040C2C2C19A3109F4DA
:10F6A0006CC09A3108F491C09B3109F45BC09D3164
:10F6B00009F033C29D81903359F48F81882311F46E
:10F6C0009EE11CC0813011F091E018C098E916C08D
:10F6D000892F807591F0903539F4E0E0F0E089E011
:10F6E0008093570094910AC0983539F4E3E0F0E034
:10F6F00089E080935700949101C090E01A821B82A8
:10F700008D818C831D829E831F8227E030E009C299
:10F710001A8288E08B8381E48C8386E58D8382E581
:10F720008E8389E48F8383E5888780E589878FE5E9
:10F730008A8782E38B872BE030E0F3C18A818139AD
:10F7400041F0823941F0803911F48FE005C080E04A
:10F7500003C082E001C08AE01A828B8344C0772410
:10F76000739482C08D81882311F48EE12CC0813086
:10F7700011F081E028C088E926C01A82E1E0F0E0BB
:10F7800089E08093570084918B831C8224E030E0D1
:10F79000C8C18B81803589F48C81883039F4E2E0EE
:10F7A000F0E089E08093570084910DC0E0E0F0E044
:10F7B00089E080935700849106C0E3E0F0E089E09F
:10F7C0008093570084911A82DFCF8D81836C99E0FA
:10F7D000E1E0F0E0082E90935700E89507B600FCB2
:10F7E000FDCF1A821B8223E030E09BC180EC8A832C
:10F7F000CE5CDE4F188219821A821B82C253D1401E
:10F800008EC18A8190E0A0E0B0E0582F44273327D2
:10F8100022278B8190E0A0E0B0E0DC0199278827C7
:10F82000282B392B4A2B5B2B8D8190E0A0E0B0E098
:10F83000282B392B4A2B5B2B8C8190E0A0E0B0E089
:10F84000BA2FA92F982F8827282B392B4A2B5B2BCF
:10F85000220F331F441F551FC05EDE4F288339839C
:10F860004A835B83C052D1401A8259C13A81C95C34
:10F87000DE4F3883C753D140CA5CDE4F1882C6536F
:10F88000D1408B81C82EDD24CA5CDE4F488159816E
:10F89000C653D140C42AD52A933109F082C0CE5C28
:10F8A000DE4F88819981AA81BB81C253D1408050AB
:10F8B000904CA340B04030F583E0CE5CDE4FE88052
:10F8C000F9800A811B81C253D140F70100935B008C
:10F8D00080935700E89507B600FCFDCFCE5CDE4F65
:10F8E000088119812A813B81C253D14000501F4FAA
:10F8F0002F4F3F4FCE5CDE4F088319832A833B8313
:10F90000C253D140C05EDE4F488159816A817B81FC
:10F91000C052D140DE011B9631E08C9111962C91A2
:10F9200011971296C75CDE4F2883C953D140C85C3B
:10F93000DE4F1882C853D14090E0C85CDE4FE881AA
:10F94000F981C853D1408E2B9F2B0C01FA01609393
:10F950005B0030935700E89511244E5F5F4F6F4F67
:10F960007F4F0EEFE02E0FEFF02ECE0CDF1CC114F8
:10F97000D10499F685E0C05EDE4F088119812A81A5
:10F980003B81C052D140F80120935B008093570027
:10F99000E89507B600FCFDCF81E180935700E8951C
:10F9A00035C0C05EDE4F88819981AA81BB81C0527B
:10F9B000D140B695A795979587957C018601ABE0D8
:10F9C000AA2EB12CAC0EBD1E0BC0D5016D915D01F0
:10F9D000C7010F947FFE0894E11CF11C01501040F8
:10F9E0000115110591F7A60160E070E0440F551F65
:10F9F000661F771FC05EDE4FE880F9800A811B8199
:10FA0000C052D1404E0D5F1D601F711F1A82C05E33
:10FA1000DE4F488359836A837B83C052D1407FC0C5
:10FA2000FA80C55CDE4FF882CB53D140C65CDE4F16
:10FA30001882CA53D1408B81C82EDD24C65CDE4FAC
:10FA400008811981CA53D140C02AD12A1A828981DA
:10FA5000BE016D5F7F4F843121F59601C05EDE4FA0
:10FA6000E880F9800A811B81C052D1400BBFF701A9
:10FA700087919691DB018C9311969C936E5F7F4FDB
:10FA8000D801C7010296A11DB11DC05EDE4F88835B
:10FA90009983AA83BB83C052D14022503040F1F6F3
:10FAA00036C0C05EDE4F288139814A815B81C052F9
:10FAB000D1400894C108D108760100E010E0089414
:10FAC000C11CD11C0894E11CF11C011D111DE20E8A
:10FAD000F31E041F151F21BDBB27A52F942F832FB5
:10FAE00082BD2F5F3F4F4F4F5F4FF89A80B5DB01CC
:10FAF0008D93BD012E153F054007510761F7C05E8C
:10FB0000DE4F288339834A835B83C052D1409601FC
:10FB10002D5F3F4FFB01108204C080EC8A8322E0FE
:10FB200030E08BE18093C6008091C00086FFFCCF5F
:10FB30008091C00080648093C000C15DDE4FF88179
:10FB4000CF52D140F093C6008091C00086FFFCCF19
:10FB50008091C00080648093C000432F3093C60022
:10FB60008091C00086FFFCCF8091C00080648093AC
:10FB7000C000922F2093C6008091C00086FFFCCF6A
:10FB80008091C00080648093C0008EE08093C600A6
:10FB90008091C00086FFFCCF8091C000806480937C
:10FBA000C00065E1C15DDE4FE880CF52D1406E25D7
:10FBB00069276427FE01319610C090819093C6009A
:10FBC0008091C00086FFFCCF31968091C000806498
:10FBD0008093C0006927215030402115310569F715
:10FBE0006093C6008091C00086FFFCCF8091C0006A
:10FBF00080648093C00085B1805885B9772081F4F6
:10FC0000C15DDE4F0881CF52D1400F5FC15DDE4F35
:10FC10000883CF52D14090E0A0E0B0E00D941AF4F8
:10FC200027982F9880E090E020ED37E0F901319798
:10FC3000F1F7019684369105C9F700008091C00064
:10FC40008D7F8093C00081E180935700E895EE2777
:10FC5000FF270994FFCF90E00D941AF497FB092E2B
:10FC600007260AD077FD04D02ED006D000201AF443
:10FC7000709561957F4F0895F6F7909581959F4F08
:10FC80000895A1E21A2EAA1BBB1BFD010DC0AA1FDD
:10FC9000BB1FEE1FFF1FA217B307E407F50720F0F5
:10FCA000A21BB30BE40BF50B661F771F881F991F70
:10FCB0001A9469F760957095809590959B01AC01B9
:10FCC000BD01CF010895AA1BBB1B51E107C0AA1FAC
:10FCD000BB1FA617B70710F0A61BB70B881F991FED
:10FCE0005A95A9F780959095BC01CD010895F99991
:10FCF000FECF92BD81BDF89A992780B50895262F31
:10FD0000F999FECF1FBA92BD81BD20BD0FB6F89400
:0EFD1000FA9AF99A0FBE01960895F894FFCF63
:00000001FF
