:100000000C945D000C9485000C9485000C94850084
:100010000C9485000C9485000C9485000C9485004C
:100020000C9485000C9485000C9485000C9485003C
:100030000C9485000C9485000C9485000C9485002C
:100040000C9497060C9485000C9465060C943F065E
:100050000C9485000C9485000C9485000C9485000C
:100060000C94E1060C9485000000000800020100D9
:100070000003040700000000000000000000000072
:10008000250028002B0000000000240027002A0083
:10009000040404040404040402020202020203032E
:1000A0000303030301020408102040800102040836
:1000B0001020010204081020000811241FBECFEFF9
:1000C000D8E0DEBFCDBF11E0A0E0B1E0E8EDF3E1A4
:1000D00002C005900D92AC39B107D9F723E0ACE925
:1000E000B1E001C01D92A632B207E1F710E0CDE504
:1000F000D0E004C02197FE010E94E409CC35D1076D
:10010000C9F70E9453080C94EA090C94000090E08F
:10011000FC01EC55FF4F249180579F4FFC018491C7
:10012000882399F090E0880F991FFC01EA57FF4F50
:10013000A591B491FC01E458FF4F859194918FB73C
:10014000F894EC91E22BEC938FBF08950895CF9330
:10015000DF93AC01E0915F02F09160023097F1F023
:1001600090915E0280915D029817C0F090E0292F77
:1001700030E02617370754F4D901A456BE4F240F98
:10018000351FE90128812C939F5FF1CF10925E0209
:1001900060935D02CB01DF91CF910994DF91CF9104
:1001A0000895AF92BF92CF92DF92EF92FF920F939A
:1001B0001F93CF93DF936C017B018B01040F151FFD
:1001C000EB015E01AE18BF08C017D10759F0699165
:1001D000D601ED91FC910190F081E02DC6010995C9
:1001E000892B79F7C501DF91CF911F910F91FF9076
:1001F000EF90DF90CF90BF90AF900895FC01538DAA
:10020000448D252F30E0842F90E0821B930B5417F0
:1002100010F0CF96089501970895FC01918D828D7D
:10022000981761F0A28DAE0FBF2FB11D5D968C9116
:10023000928D9F5F9F73928F90E008958FEF9FEF55
:100240000895FC01918D828D981731F0828DE80F11
:10025000F11D858D90E008958FEF9FEF0895FC01CB
:10026000918D228D892F90E0805C9F4F821B910998
:100270008F739927089585E692E00E942F0121E06F
:10028000892B09F420E0822F089580E090E0892BEB
:1002900029F00E943B0181110C9400000895FC019B
:1002A000A48DA80FB92FB11DA35ABF4F2C91848DD7
:1002B00090E001968F739927848FA689B7892C9334
:1002C000A089B1898C91837080648C93938D848D87
:1002D000981306C00288F389E02D80818F7D80838A
:1002E0000895EF92FF920F931F93CF93DF93EC014A
:1002F00081E0888F9B8D8C8D98131AC0E889F989CD
:10030000808185FF15C09FB7F894EE89FF896083CF
:10031000E889F98980818370806480839FBF81E050
:1003200090E0DF91CF911F910F91FF90EF90089592
:10033000F62E0B8D10E00F5F1F4F0F731127E02E6D
:100340008C8D8E110CC00FB607FCFACFE889F989A5
:10035000808185FFF5CFCE010E944F01F1CFEB8D5B
:10036000EC0FFD2FF11DE35AFF4FF0829FB7F89479
:100370000B8FEA89FB8980818062CFCFCF93DF9397
:10038000EC01888D8823B9F0AA89BB89E889F989AD
:100390008C9185FD03C0808186FD0DC00FB607FCE2
:1003A000F7CF8C9185FFF2CF808185FFEDCFCE0115
:1003B0000E944F01E9CFDF91CF91089590E0FC01B9
:1003C000E859FF4F2491FC01EC55FF4F3491FC019B
:1003D000E057FF4FE491EE23C9F0222339F0233098
:1003E00001F1A8F4213019F1223029F1F0E0EE0FEB
:1003F000FF1FE458FF4FA591B4918FB7F894EC918B
:10040000611126C030953E233C938FBF089527305D
:10041000A9F02830C9F0243049F7809180008F7D01
:1004200003C0809180008F7780938000DFCF84B5F8
:100430008F7784BDDBCF84B58F7DFBCF8091B000FB
:100440008F778093B000D2CF8091B0008F7DF9CFAD
:100450003E2BDACF3FB7F89480914F029091500233
:10046000A0915102B091520226B5A89B05C02F3F22
:1004700019F00196A11DB11D3FBFBA2FA92F982FCA
:100480008827BC01CD01620F711D811D911D42E0C5
:10049000660F771F881F991F4A95D1F708958F928D
:1004A0009F92AF92BF92CF92DF92EF92FF924B0159
:1004B0005C010E942A026B017C010E942A026C19D5
:1004C0007D098E099F09683E734081059105A8F357
:1004D00021E0821A9108A108B10888EEC80E83E0D5
:1004E000D81EE11CF11C81149104A104B10429F768
:1004F000FF90EF90DF90CF90BF90AF909F908F9044
:10050000089508952091DD01260F3327331F2132EE
:100510003105ECF420912602FC0190E080E02430CB
:1005200069F082E00895A091DD012191AC0143546E
:100530005E4FA40FB52FB11D2C930196861798F32B
:100540008091DD01680F6093DD0180E0089581E016
:1005500008951092260281E08093250210920002F5
:1005600061E082E10E94DE0161E083E10E94DE0140
:10057000E9EBF0E080818E7F808380818D7F8083B6
:1005800088E48093B80085E48093BC000895CF93FD
:10059000DF9391E09093BC018823B9F0C091B8003B
:1005A000D091BA008091BC008A7B8093BC0060E04F
:1005B00082E10E94DE0160E083E10E94DE010E9490
:1005C000A902D093BA00C093B800DF91CF910895EB
:1005D0000895E0915E0280915D02E81730F4F0E04A
:1005E000E456FE4F808190E008958FEF9FEF0895CD
:1005F00090915E0280915D022FEF3FEF981748F4D3
:10060000E92FF0E0E456FE4F208130E09F5F9093A9
:100610005E02C901089580915D0290915E02891B7E
:10062000990B0895CF92DF92EF92FF920F931F9351
:10063000CF93DF937C01CB018A0120912C022223EE
:1006400089F0EB016B01C40ED51ECC15DD0569F0F8
:100650006991D701ED91FC910190F081E02DC701E6
:100660000995F3CF642F0E948202C801DF91CF91D8
:100670001F910F91FF90EF90DF90CF900895CF934F
:10068000DF931F92CDB7DEB7698320912C0222231E
:10069000F9F020915B02203258F021E030E0FC01BB
:1006A0003383228390E080E00F90DF91CF91089513
:1006B00080915C02E82FF0E0E35DFD4F998190832B
:1006C0008F5F80935C0280935B0281E090E0ECCFCF
:1006D00061E0CE0101960E948202F7CFCF92DF92B5
:1006E000EF92FF920F931F93CF93DF93FC01C4818E
:1006F00021E020932C02C0934D0210925C021092D4
:100700005B028385682B82E093E00E943F03D091D7
:100710005B02D13208F092C00E942A026B017C0178
:1007200080912602811165C082E08093260281E0DB
:10073000809325028FEF8093240210922302D0939E
:100740002202ADE2B2E0E2E0F2E080E0D81385C040
:100750001092010280910102CC0FC82BC0930102BC
:1007600080910002813009F07CC0109200020E944A
:100770002A026B017C01809101028093BB00809171
:10078000280290912902A0912A02B0912B02892B74
:100790008A2B8B2B99F00E942A020091280210913B
:1007A000290220912A0230912B026C197D098E09B1
:1007B0009F090617170728073907E0F18091BC0049
:1007C00083FDD9CF85EC8093BC000E942A026B0187
:1007D0007C0180912602823009F445C08091240278
:1007E0008F3F61F180912402803241F18091240297
:1007F00025C08091280290912902A0912A02B091EF
:100800002B02892B8A2B8B2B09F48ACF0E942A0278
:10081000009128021091290220912A0230912B0286
:100820006C197D098E099F090617170728073907D4
:1008300008F076CF809127020E94C70210925C02D6
:1008400010925B0210922C02DF91CF911F910F91B9
:10085000FF90EF90DF90CF9008959D9191938F5FDF
:1008600075CF85EEB0CF8091280290912902A0919A
:100870002A02B0912B02892B8A2B8B2B09F4A9CF4A
:100880000E942A02009128021091290220912A0236
:1008900030912B026C197D098E099F0906171707E5
:1008A0002807390708F095CFC5CF90E080E008957C
:1008B0000F931F93CF938C01C62F0E946E036C2F52
:1008C0006460C8010E946E036C2F6B7FC8010E9498
:1008D0006E0383EC90E00197F1F7CF911F910F9198
:1008E00008950F931F93CF93DF938C01D62FC42FBE
:1008F000607F642B0E94580480E1D89FB0011124CE
:100900006C2BC801DF91CF911F910F910C9458046B
:10091000CF93DF93CDB7DEB728970FB6F894DEBF3D
:100920000FBECDBF28E0E0E0F1E0DE0111960190BE
:100930000D922A95E1F7FC012085261708F46FEF48
:1009400070E0660F771F21E030E02C0F3D1F620F33
:10095000731FFB016081606840E028960FB6F89431
:10096000DEBF0FBECDBFDF91CF910C94710441E08B
:100970000E94710481E090E008950F931F93CF933C
:10098000DF93EC0110925E0210925D0210925C0205
:1009900010925B020E94A90286EA90E090935802AE
:1009A0008093570287EA90E090935A02809359020D
:1009B0001D828A85823010F098E09D83888762E3EB
:1009C00070E080E090E00E944F026B85CE010E94B3
:1009D0006E0368EE73E080E090E00E944F0260E3F7
:1009E000CE010E9458040BE416E4C8010197F1F708
:1009F00060E3CE010E945804C8010197F1F760E35B
:100A0000CE010E94580483E592E00197F1F760E27D
:100A1000CE010E9458046D81606240E0CE010E94C8
:100A2000710484E08E8340E06CE0CE010E9471048A
:100A300040E061E0CE010E9471040BE31FE1C801B8
:100A40000197F1F782E08F8340E066E0CE010E94DB
:100A5000710440E062E0CE010E947104C801019778
:100A6000F1F7DF91CF911F910F910895FB01019054
:100A70000020E9F73197AF01461B570BDC01ED91E0
:100A8000FC910280F381E02D09948F929F92AF92A6
:100A9000BF92EF92FF920F931F93CF93DF93CDB747
:100AA000DEB7A1970FB6F894DEBF0FBECDBF7C01B5
:100AB000FA01CB0119A2223008F42AE08E010F5D61
:100AC0001F4F822E912CB12CA12CBF01A5019401A6
:100AD0000E94C209F901CA016A300CF5605DD801B3
:100AE0006E938D01232B242B252B79F790E080E04A
:100AF000109721F0BD01C7010E943605A1960FB6DF
:100B0000F894DEBF0FBECDBFDF91CF911F910F9143
:100B1000FF90EF90BF90AF909F908F900895695C89
:100B2000DECFCF92DF92EF92FF92CF93DF936C01F3
:100B3000990FEE08FF08F7FE23C06DE285E692E00C
:100B40000E947101EC0144275527BA014C195D0937
:100B50006E097F092AE085E692E00E944505C80FEC
:100B6000D91F60E571E085E692E00E9436058C0FA2
:100B70009D1FDF91CF91FF90EF90DF90CF90089570
:100B80002AE0B701A60185E692E00E944505EC0146
:100B9000E8CF80915D0290915E02891B990B0297CC
:100BA000A1F482E093E00E94F802909364028093A3
:100BB000630263E571E085E692E00E94360580916C
:100BC0006302909164020E94910580915D02909170
:100BD0005E02891B990B0197A1F482E093E00E94C9
:100BE000F802909362028093610268E571E085E605
:100BF00092E00E94360580916102909162020E940B
:100C0000910560916102809163020C94DE0185ED93
:100C10008093BC008091280290912902A0912A0221
:100C2000B0912B020796A11DB11D23E0B695A795A3
:100C3000979587952A95D1F72091BC0024FD03C094
:100C40001092260208954091280250912902609145
:100C50002A0270912B02452B462B472B69F30097F4
:100C6000A105B10541F02AE22A95F1F700C00197EC
:100C7000A109B109E1CF809127020C94C7021F920C
:100C80000F920FB60F9211242F933F934F935F93C0
:100C90006F937F938F939F93AF93BF93EF93FF9344
:100CA00085E692E00E944F01FF91EF91BF91AF91D5
:100CB0009F918F917F916F915F914F913F912F9174
:100CC0000F900FBE0F901F9018951F920F920FB6A6
:100CD0000F9211242F938F939F93EF93FF93E091A3
:100CE0007502F09176028081E0917B02F0917C02A6
:100CF00082FD1BC0908180917E028F5F8F73209157
:100D00007F02821741F0E0917E02F0E0EB59FD4F47
:100D1000958F80937E02FF91EF919F918F912F91FC
:100D20000F900FBE0F901F9018958081F4CF1F92E7
:100D30000F920FB60F9211242F933F938F939F938F
:100D4000AF93BF938091530290915402A0915502AA
:100D5000B091560230914E0223E0230F2D3758F503
:100D60000196A11DB11D20934E02809353029093D2
:100D70005402A0935502B093560280914F02909175
:100D80005002A0915102B09152020196A11DB11DD5
:100D900080934F0290935002A0935102B09352025D
:100DA000BF91AF919F918F913F912F910F900FBE67
:100DB0000F901F90189526E8230F0296A11DB11DD4
:100DC000D2CF1F920F920FB60F9211242F933F9301
:100DD0004F935F936F937F938F939F93AF93BF9343
:100DE000EF93FF938091B900887F803609F44AC061
:100DF000F0F5883209F4A7C018F5803109F49BC0DA
:100E0000B8F4882309F4F9C0883009F494C0FF913C
:100E1000EF91BF91AF919F918F917F916F915F9172
:100E20004F913F912F910F900FBE0F901F901895EB
:100E3000883109F488C0803251F78093240214C0AD
:100E4000803409F49DC040F48033B9F38833F9F657
:100E50008093240285ECB0C0803509F485C08835C4
:100E600009F496C0883499F60E940706D0CF8839D5
:100E700009F48CC038F5883729F050F4883611F021
:100E8000803729F683E0809326021092FF0157C035
:100E9000883809F47BC0803919F0803809F0B7CF61
:100EA0008091FF01803208F071C0E091FF0181E084
:100EB0008E0F8093FF018091BB00F0E0E152FE4F66
:100EC00080833DC0803B39F0E0F4803A09F479C07A
:100ED000883A09F09CCF84E0809326021092DE01CC
:100EE0001092DD01E0915702F0915802099580912E
:100EF000DD0181110FC081E08093DD011092BD0101
:100F000009C0803C09F4A6CF883C09F4A3CF883BF4
:100F100009F07DCFE091DE0181E08E0F8093DE014C
:100F2000F0E0E354FE4F80818093BB009091DE019E
:100F30008091DD0129C0809101028093BB0085EC86
:100F40008093BC0064CF9091230280912202981775
:100F500058F5E091230281E08E0F80932302F0E0A8
:100F6000EE5FFD4F8081E9CFE091230281E08E0F9B
:100F7000809323028091BB00F0E0EE5FFD4F808301
:100F800090912302809122029817C8F285E8D8CF69
:100F9000E091230281E08E0F809323028091BB00B9
:100FA000F0E0EE5FFD4F80838091250281115CCFE0
:100FB00081E08093000284EA8093BC0010922602B4
:100FC00026CF85EC8093BC00109226028091FF0111
:100FD000803230F4E091FF01F0E0E152FE4F1082E8
:100FE0006091FF0170E0E0915902F0915A028FED9B
:100FF00091E009951092FF010ACF1092240234CF9C
:10100000E5E6F2E01382128288EE93E0A0E0B0E021
:1010100084839583A683B78324E231E031832083E0
:1010200025EC30E03587248724EC30E037872687AD
:1010300020EC30E0318B208B21EC30E0338B228BA5
:1010400022EC30E0358B248B26EC30E0378B268B7E
:10105000118E128E138E148EE2E0F3E01382128250
:1010600084839583A683B78386E391E0918380830D
:10107000EAE1F3E01382128228E431E03183208335
:1010800080E2848390E1918782E082871386EEE09C
:10109000F3E0138212823183208321E2248391873B
:1010A000828713860895CF93DF93CDB7DEB7689715
:1010B0000FB6F894DEBF0FBECDBF789484B58260C2
:1010C00084BD84B5816084BD85B5826085BD85B5EC
:1010D000816085BD80916E00816080936E0010926A
:1010E00081008091810082608093810080918100E5
:1010F0008160809381008091800081608093800076
:101100008091B10084608093B1008091B0008160D3
:101110008093B00080917A00846080937A008091FF
:101120007A00826080937A0080917A008160809357
:101130007A0080917A00806880937A001092C100D2
:101140008AE193E00E94BD048EE093E00E94BD041A
:1011500018E01093250360E08AE193E00E946E039B
:101160001093190360E08EE093E00E946E0360E04C
:101170008AE193E00E94880460E671E08AE193E0EE
:101180000E94360560E771E08EE093E00E9436052C
:10119000E0917502F091760282E08083E091710225
:1011A000F09172021082E0917302F09174028FEC60
:1011B000808310927D02E0917902F0917A0286E0BC
:1011C0008083E0917702F091780280818061808352
:1011D000E0917702F0917802808188608083E091CD
:1011E0007702F0917802808180688083E0917702B5
:1011F000F091780280818F7D808382E00E94870059
:1012000083E00E94870084E00E94870085E00E94BE
:10121000870086E00E9487000BE31FE11E018AE041
:10122000280E311C88EE482E83E0582E612C712C3C
:1012300096EAE92E90E0F92E27EAC22E20E0D22E7F
:1012400039ECA32E35E0B32E40E0842E40E0942EFE
:1012500040E061E08EE093E00E947104C8010197D4
:10126000F1F760E08EE093E00E9488048AE0E8E015
:10127000F1E0DE011D9601900D928A95E1F7188E3E
:101280001F8A80916302805D8E8BBE01635F7F4FFA
:101290008EE093E00E94360561E08EE093E00E94CC
:1012A000880489E0E4E1F1E0DE01119601900D92FD
:1012B0008A95E1F7F10183E011928A95E9F780912F
:1012C0006102805D8987BE016F5F7F4F8EE093E092
:1012D0000E94360561E08AE193E00E9488042FB7FE
:1012E000F89460915302709154028091550290914C
:1012F00056022FBFA30192010E94C209BA01A9019F
:101300002AE08AE193E00E94450561E871E08AE104
:1013100093E00E9436056BE871E085E692E00E945A
:10132000360560E571E085E692E00E943605109290
:101330005E0210925D0210925C0210925B020E94AB
:10134000A902F0925802E0925702D0925A02C0923B
:101350005902E2E0E093BA00B0926002A0925F020C
:1013600064EF71E080E090E00E944F0281149104EC
:1013700009F46ECF0E943B01882309F469CF0E94D3
:10138000000066CFA1E21A2EAA1BBB1BFD010DC0F7
:10139000AA1FBB1FEE1FFF1FA217B307E407F50725
:1013A00020F0A21BB30BE40BF50B661F771F881F01
:1013B000991F1A9469F760957095809590959B0197
:1013C000AC01BD01CF010895EE0FFF1F0590F49110
:0813D000E02D0994F894FFCF11
:1013D800000040001400540050696E206D6F643A9C
:1013E8002000000045737461646F3A20000000001B
:1013F800000000007101D100FE00BE012F010D01A7
:101408002101000000003F0312035504E8020B030A
:10141800F802E90200000000B704D1005504810277
:101428000D0A004C4544200045737461646F200028
:10143800205072696D65722043617274656C20007A
:1014480020536567756E646F2043617274656C2004
:101458000020536567756E646F7300456E76696F1B
:0C1468002064652063617274656C2100D3
:00000001FF
