:100000000C9440010C9471010C9471010C947101D9
:100010000C9471010C9471010C9471010C94710198
:100020000C9471010C9471010C9471010C94710188
:100030000C9471010C9471010C9471010C94710178
:100040000C9471010C9471010C9471010C94710168
:100050000C9471010C9471010C9471010C94EE07D5
:100060000C9471010C94B8070C948E070C947101D8
:100070000C9471010C9471010C9471010C94710138
:100080000C9471010C9471010C9471010C94710128
:100090000C9471010C9471010C9471010C9438084A
:1000A0000C9471010C9471010C9471010C94710108
:1000B0000C9471010C9471010C9471010C947101F8
:1000C0000C9471010C9471010C9471010C947101E8
:1000D0000C9471010C9471010C9471010C947101D8
:1000E0000C9471010C946D030C943C040C94650405
:1000F0000C9492040C9493010C9477030C944B048D
:100100000C944D030C9457030C9473030C949201BC
:100110000C94D4030C9426030C945F030C94650395
:100120000C9421030C94A8050C9447030C945C09CF
:100130000C9444030C9438030C941B020C945E043E
:100140000C94A0020C9469030C945B030C940D02B4
:100150000C941C070C9453020C94EA010C94BD01FE
:100160000C9451030C940A060C94F9010C943C0372
:100170000C943B040C94400300000A0B02090C0D84
:100180000E0807030401000000000000000000004A
:10019000000000000000000000000000000000005F
:1001A000000000001211100000000000000000001C
:1001B000000000000000000000000000000000003F
:1001C0002200250028002B002E00310034000201FF
:1001D0000000050108010B01000021002400270098
:1001E0002A002D0030003300010100000401070146
:1001F0000A010505050507050808080802020202AC
:100200000A0A0808040404040101010101010101B2
:100210000303030303030303040707070C0C0C0C7D
:100220000C0C0C0C02020202060606060606060666
:100230000B0B0B0B0B0B0B0B0102102020080810F3
:100240002040102040800201020108040201010246
:10025000040810204080804020100804020180041F
:10026000020180402010080402010804020101027A
:1002700004081020408001020408102040805C091E
:1002800011241FBECFEFD1E2DEBFCDBF00E00CBF17
:1002900012E0A0E0B2E0EAE1F6E100E00BBF02C04C
:1002A00007900D92A438B107D9F724E0A4E8B2E092
:1002B00001C01D92AA30B207E1F711E0C0E4D1E01D
:1002C00000E006C021970109802FFE010E94030B68
:1002D000CF33D10780E00807A9F70E94AF090C943B
:1002E0000B0B0C94000090E0FC01E85CFD4F2491A6
:1002F0008E509E4FFC018491882399F090E0880FE6
:10030000991FFC01E852FE4FA591B491FC01E25403
:10031000FE4F859194918FB7F894EC91E22BEC937A
:100320008FBF08950895CF93DF93AC01E09143030D
:10033000F09144033097F1F0909142038091410392
:100340009817C0F090E0292F30E02617370754F4B3
:10035000D901AC57BD4F240F351FE90128812C93DB
:100360009F5FF1CF1092420360934103CB01DF9175
:10037000CF911994DF91CF910895AF92BF92CF9210
:10038000DF92EF92FF920F931F93CF93DF936C0155
:100390007B018B01040F151FEB015E01AE18BF0836
:1003A000C017D10759F06991D601ED91FC910190E8
:1003B000F081E02DC6011995892B79F7C501DF91F0
:1003C000CF911F910F91FF90EF90DF90CF90BF9052
:1003D000AF900895FC01538D448D252F30E0842F7C
:1003E00090E0821B930B541710F0CF96089501975D
:1003F0000895FC01918D828D981761F0A28DAE0F4A
:10040000BF2FB11D5D968C91928D9F5F9F73928FD0
:1004100090E008958FEF9FEF0895FC01918D828DFC
:10042000981731F0828DE80FF11D858D90E00895C9
:100430008FEF9FEF0895FC01918D228D892F90E021
:10044000805C9F4F821B91098F739927089589E4DF
:1004500093E00E941B0221E0892B09F420E0822F07
:100460000895FC01A48DA80FB92FB11DA35ABF4F49
:100470002C91848D90E001968F739927848FA689A3
:10048000B7892C93A089B1898C91837080648C93F7
:10049000938D848D981306C00288F389E02D8081A6
:1004A0008F7D80830895EF92FF920F931F93CF93D8
:1004B000DF93EC0181E0888F9B8D8C8D98131AC09F
:1004C000E889F989808185FF15C09FB7F894EE8986
:1004D000FF896083E889F9898081837080648083E3
:1004E0009FBF81E090E0DF91CF911F910F91FF902E
:1004F000EF900895F62E0B8D10E00F5F1F4F0F73D6
:100500001127E02E8C8D8E110CC00FB607FCFACF90
:10051000E889F989808185FFF5CFCE010E943102FB
:10052000F1CFEB8DEC0FFD2FF11DE35AFF4FF08261
:100530009FB7F8940B8FEA89FB8980818062CFCFC7
:10054000CF93DF93EC01888D8823B9F0AA89BB890A
:10055000E889F9898C9185FD03C0808186FD0DC0F5
:100560000FB607FCF7CF8C9185FFF2CF808185FF16
:10057000EDCFCE010E943102E9CFDF91CF910895F6
:1005800080E090E0892B29F00E94270281110E94CF
:10059000000080E090E0892B49F080E090E0892B1A
:1005A00029F00E94000081110E94000080E090E08C
:1005B000892B49F080E090E0892B29F00E9400000F
:1005C00081110E94000080E090E0892B49F080E0DA
:1005D00090E0892B29F00E94000081110C9400000A
:1005E0000895282F30E0F901E858FE4F9491F90161
:1005F000E85CFD4F44912E503E4FF9012491222397
:1006000009F435C0992311F191509231F8F4E92F92
:10061000F0E08827E15FFC4F8F4F0C94030B400301
:100620004403210338033C03260347034D035103CE
:1006300057035B035F036503690326036D037303BD
:100640007703809180008F7780938000E22FF0E025
:10065000EE0FFF1FE254FE4FA591B4918FB7F894AF
:10066000EC91611148C040954E234C938FBF089583
:10067000809180008F7DE8CF80918000877FE4CFDC
:1006800084B58F7784BDE2CF84B58F7DFBCF809119
:10069000B0008F778093B000D9CF8091B0008F7D6C
:1006A000F9CF809190008F7780939000CFCF809189
:1006B00090008F7DF9CF80919000877FF5CF80915A
:1006C000A0008F778093A000C1CF8091A0008F7D84
:1006D000F9CF8091A000877FF5CF809120018F779F
:1006E00080932001B3CF809120018F7DF9CF80913D
:1006F0002001877FF5CF4E2BB8CF3FB7F89480917C
:10070000370390913803A0913903B0913A0326B58D
:10071000A89B05C02F3F19F00196A11DB11D3FBF39
:10072000BA2FA92F982F8827BC01CD01620F711D08
:10073000811D911D42E0660F771F881F991F4A9502
:10074000D1F708958F929F92AF92BF92CF92DF928E
:10075000EF92FF924B015C010E947D036B017C01D3
:100760000E947D036C197D098E099F09683E7340C4
:1007700081059105A8F321E0821A9108A108B1082A
:1007800088EEC80E83E0D81EE11CF11C8114910490
:10079000A104B10429F7FF90EF90DF90CF90BF90B4
:1007A000AF909F908F90089508952091C502260FD5
:1007B0003327331F21323105ECF420910E03FC0165
:1007C00090E080E0243069F082E00895A091C502B5
:1007D0002191AC014B555D4FA40FB52FB11D2C934A
:1007E0000196861798F38091C502680F6093C50241
:1007F00080E0089581E0089510920E0381E08093D7
:100800000D031092E80261E084E10E94F10261E0D0
:1008100085E10E94F102E9EBF0E080818E7F808328
:1008200080818D7F808388E48093B80085E4809305
:10083000BC000895CF93DF9391E09093A4028823A6
:10084000B9F0C091B800D091BA008091BC008A7B09
:100850008093BC0060E084E10E94F10260E085E1E9
:100860000E94F1020E94FC03D093BA00C093B8002A
:10087000DF91CF9108950895E09142038091410363
:10088000E81730F4F0E0EC57FD4F808190E00895D8
:100890008FEF9FEF089590914203809141032FEFD6
:1008A0003FEF981748F4E92FF0E0EC57FD4F208117
:1008B00030E09F5F90934203C90108958091410306
:1008C00090914203891B990B0895CF92DF92EF928A
:1008D000FF920F931F93CF93DF937C01CB018A018B
:1008E00020911403222389F0EB016B01C40ED51E65
:1008F000CC15DD0569F06991D701ED91FC9101906E
:10090000F081E02DC7011995F3CF642F0E94D50324
:10091000C801DF91CF911F910F91FF90EF90DF9071
:10092000CF900895CF93DF931F92CDB7DEB7698341
:10093000209114032223F9F020913F03203258F034
:1009400021E030E0FC013383228390E080E00F90CF
:10095000DF91CF91089580914003E82FF0E0EB5EA6
:10096000FC4F998190838F5F8093400380933F0376
:1009700081E090E0ECCF61E0CE0101960E94D503CA
:10098000F7CFCF92DF92EF92FF920F931F93CF9307
:10099000DF93FC01C48121E020931403C09335034D
:1009A0001092400310923F038385682B86EE93E0FC
:1009B0000E949204D0913F03D13208F092C00E946D
:1009C0007D036B017C0180910E03811165C082E083
:1009D00080930E0381E080930D038FEF80930C03CF
:1009E00010920B03D0930A03A5E1B3E0EAEEF2E024
:1009F00080E0D81385C01092E9028091E902CC0F03
:100A0000C82BC093E9028091E802813009F07CC0D4
:100A10001092E8020E947D036B017C018091E90243
:100A20008093BB008091100390911103A091120359
:100A3000B0911303892B8A2B8B2B99F00E947D0395
:100A400000911003109111032091120330911303B0
:100A50006C197D098E099F090617170728073907A2
:100A6000E0F18091BC0083FDD9CF85EC8093BC0080
:100A70000E947D036B017C0180910E03823009F49A
:100A800045C080910C038F3F61F180910C0380324F
:100A900041F180910C0325C08091100390911103C6
:100AA000A0911203B0911303892B8A2B8B2B09F48D
:100AB0008ACF0E947D0300911003109111032091B1
:100AC0001203309113036C197D098E099F090617D3
:100AD00017072807390708F076CF80910F030E9487
:100AE0001A041092400310923F0310921403DF91F6
:100AF000CF911F910F91FF90EF90DF90CF900895CD
:100B00009D9191938F5F75CF85EEB0CF809110034B
:100B100090911103A0911203B0911303892B8A2B9A
:100B20008B2B09F4A9CF0E947D0300911003109133
:100B3000110320911203309113036C197D098E0962
:100B40009F09061717072807390708F095CFC5CF63
:100B500090E080E008950F931F93CF938C01C62FF0
:100B60000E94C1046C2F6460C8010E94C1046C2FF4
:100B70006B7FC8010E94C10483EC90E00197F1F7FC
:100B8000CF911F910F9108950F931F93CF93DF93F0
:100B90008C01D62FC42F607F642B0E94AB0580E1AF
:100BA000D89FB00111246C2BC801DF91CF911F9108
:100BB0000F910C94AB05CF93DF9300D000D01F9220
:100BC0001F92CDB7DEB798E0E0E0F2E0DE011196CB
:100BD00001900D929A95E1F790910604981708F408
:100BE0008FEF90E0880F991F21E030E02C0F3D1F20
:100BF000820F931FFC016081606840E08EEF93E0FC
:100C000028960FB6F894DEBF0FBECDBFDF91CF910F
:100C10000C94C40541E00E94C40581E090E0089571
:100C20000F931F93CF93DF93EC0110924203109226
:100C300041031092400310923F030E94FC0382E99B
:100C400091E090933E0380933D0383E991E090937C
:100C50003C0380933B031D828A85823010F098E02C
:100C60009D83888762E370E080E090E00E94A203A9
:100C70006B85CE010E94C10468EE73E080E090E0D5
:100C80000E94A20360E3CE010E94AB050BE416E4D0
:100C9000C8010197F1F760E3CE010E94AB05C801DE
:100CA0000197F1F760E3CE010E94AB0583E592E086
:100CB0000197F1F760E2CE010E94AB056D816062A1
:100CC00040E0CE010E94C40584E08E8340E06CE0E9
:100CD000CE010E94C40540E061E0CE010E94C4053F
:100CE0000BE31FE1C8010197F1F782E08F8340E039
:100CF00066E0CE010E94C40540E062E0CE010E94A1
:100D0000C405C8010197F1F7DF91CF911F910F91B1
:100D10000895FB0101900020E9F73197AF01461BD0
:100D2000570BDC01ED91FC910280F381E02D1994C9
:100D30008F929F92AF92BF92EF92FF920F931F9369
:100D4000CF93DF93CDB7DEB7A1970FB6F894DEBF90
:100D50000FBECDBF7C01FA01CB0119A2223008F4ED
:100D60002AE08E010F5D1F4F822E912CB12CA12CF9
:100D7000BF01A50194010E94E10AF901CA016A308C
:100D80000CF5605DD8016E938D01232B242B252B50
:100D900079F790E080E0109721F0BD01C7010E9433
:100DA0008906A1960FB6F894DEBF0FBECDBFDF91C6
:100DB000CF911F910F91FF90EF90BF90AF909F90B8
:100DC0008F900895695CDECFCF92DF92EF92FF9211
:100DD000CF93DF936C01990FEE08FF08F7FE23C055
:100DE0006DE289E493E00E945302EC014427552709
:100DF000BA014C195D096E097F092AE089E493E084
:100E00000E949806C80FD91F68E372E089E493E056
:100E10000E9489068C0F9D1FDF91CF91FF90EF906C
:100E2000DF90CF9008952AE0B701A60189E493E00E
:100E30000E949806EC01E8CF1F93CF93DF93809137
:100E4000410390914203891B990BC0E0029771F412
:100E500086EE93E00E944B04EC016BE372E089E4C0
:100E600093E00E948906CE010E94E406809141032E
:100E700090914203891B990BD0E0019781F486EE93
:100E800093E00E944B04D82F192F60E472E089E4AC
:100E900093E00E9489068D2F912F0E94E4066D2F0A
:100EA0008C2FDF91CF911F910C94F10285ED8093EF
:100EB000BC008091100390911103A0911203B09196
:100EC00013030796A11DB11D23E0B695A79597952D
:100ED00087952A95D1F72091BC0024FD03C010927C
:100EE0000E03089540911003509111036091120375
:100EF00070911303452B462B472B69F30097A105EF
:100F0000B10541F02AE22A95F1F700C00197A10945
:100F1000B109E1CF80910F030C941A041F920F9234
:100F20000FB60F9211240BB60F922F933F934F934E
:100F30005F936F937F938F939F93AF93BF93EF9341
:100F4000FF9389E493E00E943102FF91EF91BF91FA
:100F5000AF919F918F917F916F915F914F913F9151
:100F60002F910F900BBE0F900FBE0F901F901895F2
:100F70001F920F920FB60F9211240BB60F922F9360
:100F80008F939F93EF93FF93E0915903F0915A034E
:100F90008081E0915F03F091600382FD1DC090812C
:100FA000809162038F5F8F7320916303821741F0FA
:100FB000E0916203F0E0E75BFC4F958F8093620362
:100FC000FF91EF919F918F912F910F900BBE0F90FA
:100FD0000FBE0F901F9018958081F2CF1F920F9235
:100FE0000FB60F9211242F933F938F939F93AF933C
:100FF000BF938091450390914603A0914703B09120
:1010000048033091360323E0230F2D3758F501961E
:10101000A11DB11D20933603809345039093460391
:10102000A0934703B093480380913703909138030E
:10103000A0913903B0913A030196A11DB11D80938F
:10104000370390933803A0933903B0933A03BF91C9
:10105000AF919F918F913F912F910F900FBE0F9065
:101060001F90189526E8230F0296A11DB11DD2CF1F
:101070001F920F920FB60F9211240BB60F922F935F
:101080003F934F935F936F937F938F939F93AF9310
:10109000BF93EF93FF938091B900887F803609F466
:1010A0004DC008F040C0883209F4A9C028F580314D
:1010B00009F49DC0C8F4882309F4FBC0883009F402
:1010C00096C0FF91EF91BF91AF919F918F917F91CA
:1010D0006F915F914F913F912F910F900BBE0F90A9
:1010E0000FBE0F901F901895883109F488C0803288
:1010F00041F780930C0314C0803409F49DC040F480
:101100008033B9F38833E9F680930C0385ECB0C0E3
:10111000803509F485C0883509F496C0883489F68D
:101120000E945607CECF883909F48CC038F588372D
:1011300029F050F4883611F0803719F683E0809357
:101140000E031092E70257C0883809F47BC080393B
:1011500019F0803809F0B5CF8091E702803208F0AD
:1011600071C0E091E70281E08E0F8093E7028091E9
:10117000BB00F0E0E953FD4F80833DC0803B39F078
:10118000E0F4803A09F479C0883A09F09ACF84E013
:1011900080930E031092C6021092C502E0913D03A7
:1011A000F0913E0319958091C50281110FC081E035
:1011B0008093C5021092A50209C0803C09F4A6CF15
:1011C000883C09F4A3CF883B09F07BCFE091C602AD
:1011D00081E08E0F8093C602F0E0EB55FD4F8081D9
:1011E0008093BB009091C6028091C50229C0809176
:1011F000E9028093BB0085EC8093BC0062CF9091A4
:101200000B0380910A03981758F5E0910B0381E0D6
:101210008E0F80930B03F0E0E651FD4F8081E9CF04
:10122000E0910B0381E08E0F80930B038091BB0054
:10123000F0E0E651FD4F808390910B0380910A030B
:101240009817C8F285E8D8CFE0910B0381E08E0FA4
:1012500080930B038091BB00F0E0E651FD4F80834B
:1012600080910D0381115CCF81E08093E80284EAD4
:101270008093BC0010920E0324CF85EC8093BC00B9
:1012800010920E038091E702803230F4E091E70281
:10129000F0E0E953FD4F10826091E70270E0E091C9
:1012A0003B03F0913C0387EC92E019951092E70222
:1012B00008CF10920C0334CFE9E4F3E013821282DA
:1012C00088EE93E0A0E0B0E084839583A683B783A3
:1012D0002CE032E03183208325EC30E03587248711
:1012E00024EC30E03787268720EC30E0318B208BF0
:1012F00021EC30E0338B228B22EC30E0358B248BD9
:1013000026EC30E0378B268B118E128E138E148EC6
:10131000E6EEF3E01382128284839583A683B7837B
:101320008EE192E091838083EEEFF3E013821282EC
:1013300020E332E03183208380E2848390E191874F
:1013400082E082871386E2EFF3E013821282318318
:10135000208321E2248391878287138608957894DD
:1013600084B5826084BD84B5816084BD85B58260AA
:1013700085BD85B5816085BD80916E00816080935B
:101380006E001092810080918100826080938100C4
:1013900080918100816080938100809180008160D4
:1013A000809380008091B10084608093B10080912F
:1013B000B00081608093B000809191008260809342
:1013C00091008091910081608093910080919000C4
:1013D0008160809390008091A10082608093A10041
:1013E0008091A10081608093A1008091A000816024
:1013F0008093A000809121018260809321018091DF
:10140000210181608093210180912001816080937E
:10141000200180917A00846080937A0080917A0024
:10142000826080937A0080917A00816080937A0054
:1014300080917A00806880937A001092C1008EEFCC
:1014400093E00E94100682EF93E00E941006C8E02D
:10145000C093090460E08EEF93E00E94C104C09342
:10146000FD0360E082EF93E00E94C10480E00E94EF
:10147000DB0568E472E08EEF93E00E94890668E580
:1014800072E082EF93E00E948906E0915903F091A7
:101490005A03C2E0C083E0915503F09156031082D5
:1014A000E0915703F09158038FEC80831092610311
:1014B000E0915D03F0915E0386E08083E0915B0341
:1014C000F0915C03808180618083E0915B03F09107
:1014D0005C03808188608083E0915B03F0915C0312
:1014E000808180688083E0915B03F0915C03808160
:1014F0008F7D808382E00E94730183E00E947301EC
:1015000084E00E94730185E00E94730186E00E94DE
:101510007301109242031092410310924003109203
:101520003F030E94FC0382E991E090933E03809385
:101530003D0383E991E090933C0380933B03C09388
:10154000BA008CE197E0909344038093430388EEC4
:10155000C82E83E0D82EE12CF12C81E00E94DB051F
:101560002FB7F8946091450370914603809147032B
:10157000909148032FBFA70196010E94E10ABA018A
:10158000A9012AE08EEF93E00E94980669E672E0D6
:101590008EEF93E00E94890663E772E089E493E0AE
:1015A0000E94890668E372E089E493E00E9489065C
:1015B00064E670E080E090E00E94A2030E94C00216
:1015C000CCCFA1E21A2EAA1BBB1BFD010DC0AA1F86
:1015D000BB1FEE1FFF1FA217B307E407F50720F09C
:1015E000A21BB30BE40BF50B661F771F881F991F17
:1015F0001A9469F760957095809590959B01AC0160
:10160000BD01CF010895EE0FFF1F881F8BBF07900C
:0A161000F691E02D1994F894FFCF35
:10161A000000400014005400000000005302BD0105
:10162A00EA01A0021B02F9010D0200000000920467
:10163A006504A8053B045E044B043C04000000005A
:10164A000A06BD01A805D4030D0A004C4544200032
:10165A0045737461646F2000205072696D65722051
:10166A0043617274656C200020536567756E646F00
:10167A002043617274656C200020536567756E643F
:10168A006F7300456E76696F2064652063617274BA
:04169A00656C21005A
:00000001FF
